{
  "contractName": "DynamicSwap",
  "abi": [
    {
      "inputs": [
        {
          "internalType": "address",
          "name": "addr0",
          "type": "address"
        },
        {
          "internalType": "address",
          "name": "addr1",
          "type": "address"
        }
      ],
      "stateMutability": "nonpayable",
      "type": "constructor"
    },
    {
      "inputs": [],
      "name": "reserve0",
      "outputs": [
        {
          "internalType": "uint256",
          "name": "",
          "type": "uint256"
        }
      ],
      "stateMutability": "view",
      "type": "function",
      "constant": true
    },
    {
      "inputs": [],
      "name": "reserve1",
      "outputs": [
        {
          "internalType": "uint256",
          "name": "",
          "type": "uint256"
        }
      ],
      "stateMutability": "view",
      "type": "function",
      "constant": true
    },
    {
      "inputs": [],
      "name": "token0",
      "outputs": [
        {
          "internalType": "address",
          "name": "",
          "type": "address"
        }
      ],
      "stateMutability": "view",
      "type": "function",
      "constant": true
    },
    {
      "inputs": [],
      "name": "token1",
      "outputs": [
        {
          "internalType": "address",
          "name": "",
          "type": "address"
        }
      ],
      "stateMutability": "view",
      "type": "function",
      "constant": true
    },
    {
      "inputs": [
        {
          "internalType": "uint256",
          "name": "token0Amount",
          "type": "uint256"
        },
        {
          "internalType": "uint256",
          "name": "token1Amount",
          "type": "uint256"
        }
      ],
      "name": "init",
      "outputs": [],
      "stateMutability": "nonpayable",
      "type": "function"
    },
    {
      "inputs": [],
      "name": "getReserves",
      "outputs": [
        {
          "internalType": "uint256",
          "name": "",
          "type": "uint256"
        },
        {
          "internalType": "uint256",
          "name": "",
          "type": "uint256"
        }
      ],
      "stateMutability": "view",
      "type": "function",
      "constant": true
    },
    {
      "inputs": [],
      "name": "getTokens",
      "outputs": [
        {
          "internalType": "address",
          "name": "",
          "type": "address"
        },
        {
          "internalType": "address",
          "name": "",
          "type": "address"
        }
      ],
      "stateMutability": "view",
      "type": "function",
      "constant": true
    },
    {
      "inputs": [
        {
          "internalType": "uint256",
          "name": "token0Amount",
          "type": "uint256"
        }
      ],
      "name": "token0To1",
      "outputs": [],
      "stateMutability": "nonpayable",
      "type": "function"
    },
    {
      "inputs": [
        {
          "internalType": "uint256",
          "name": "token1Amount",
          "type": "uint256"
        }
      ],
      "name": "token1To0",
      "outputs": [],
      "stateMutability": "nonpayable",
      "type": "function"
    },
    {
      "inputs": [
        {
          "internalType": "uint256",
          "name": "token0Amount",
          "type": "uint256"
        }
      ],
      "name": "getToken1AmountOut",
      "outputs": [
        {
          "internalType": "uint256",
          "name": "",
          "type": "uint256"
        }
      ],
      "stateMutability": "view",
      "type": "function",
      "constant": true
    },
    {
      "inputs": [
        {
          "internalType": "uint256",
          "name": "token1Amount",
          "type": "uint256"
        }
      ],
      "name": "getToken0AmountOut",
      "outputs": [
        {
          "internalType": "uint256",
          "name": "",
          "type": "uint256"
        }
      ],
      "stateMutability": "view",
      "type": "function",
      "constant": true
    }
  ],
  "bytecode": "0x608060405234801561001057600080fd5b50604051610f5f380380610f5f833981810160405281019061003291906100df565b816000806101000a81548173ffffffffffffffffffffffffffffffffffffffff021916908373ffffffffffffffffffffffffffffffffffffffff16021790555080600160006101000a81548173ffffffffffffffffffffffffffffffffffffffff021916908373ffffffffffffffffffffffffffffffffffffffff160217905550600060028190555060006003819055505050610164565b6000815190506100d98161014d565b92915050565b600080604083850312156100f257600080fd5b6000610100858286016100ca565b9250506020610111858286016100ca565b9150509250929050565b60006101268261012d565b9050919050565b600073ffffffffffffffffffffffffffffffffffffffff82169050919050565b6101568161011b565b811461016157600080fd5b50565b610dec806101736000396000f3fe608060405234801561001057600080fd5b50600436106100a95760003560e01c80635a76f25e116100715780635a76f25e14610155578063a5843f0814610173578063aa6ca8081461018f578063ad27bb21146101ae578063ad3bd45c146101de578063d21220a7146101fa576100a9565b80630902f1ac146100ae5780630dfe1681146100cd578063248fabc4146100eb57806326ef80c91461011b578063443cb4bc14610137575b600080fd5b6100b6610218565b6040516100c4929190610af5565b60405180910390f35b6100d5610229565b6040516100e291906109f6565b60405180910390f35b6101056004803603810190610100919061092d565b61024d565b6040516101129190610ada565b60405180910390f35b6101356004803603810190610130919061092d565b610281565b005b61013f6104bc565b60405161014c9190610ada565b60405180910390f35b61015d6104c2565b60405161016a9190610ada565b60405180910390f35b61018d60048036038101906101889190610956565b6104c8565b005b6101976105f6565b6040516101a5929190610a11565b60405180910390f35b6101c860048036038101906101c3919061092d565b610645565b6040516101d59190610ada565b60405180910390f35b6101f860048036038101906101f3919061092d565b610679565b005b6102026108b4565b60405161020f91906109f6565b60405180910390f35b600080600254600354915091509091565b60008054906101000a900473ffffffffffffffffffffffffffffffffffffffff1681565b6000808260035461025e9190610b2f565b6002548461026c9190610bb6565b6102769190610b85565b905080915050919050565b600081116102c4576040517f08c379a00000000000000000000000000000000000000000000000000000000081526004016102bb90610aba565b60405180910390fd5b60006102cf82610645565b9050600354811115610316576040517f08c379a000000000000000000000000000000000000000000000000000000000815260040161030d90610a9a565b60405180910390fd5b60008054906101000a900473ffffffffffffffffffffffffffffffffffffffff1673ffffffffffffffffffffffffffffffffffffffff166323b872dd3330856040518463ffffffff1660e01b815260040161037393929190610a3a565b602060405180830381600087803b15801561038d57600080fd5b505af11580156103a1573d6000803e3d6000fd5b505050506040513d601f19601f820116820180604052508101906103c59190610904565b6103ce57600080fd5b600160009054906101000a900473ffffffffffffffffffffffffffffffffffffffff1673ffffffffffffffffffffffffffffffffffffffff1663a9059cbb33836040518363ffffffff1660e01b815260040161042b929190610a71565b602060405180830381600087803b15801561044557600080fd5b505af1158015610459573d6000803e3d6000fd5b505050506040513d601f19601f8201168201806040525081019061047d9190610904565b61048657600080fd5b81600260008282546104989190610b2f565b9250508190555080600360008282546104b19190610c10565b925050819055505050565b60025481565b60035481565b60008054906101000a900473ffffffffffffffffffffffffffffffffffffffff1673ffffffffffffffffffffffffffffffffffffffff166340c10f1930846040518363ffffffff1660e01b8152600401610523929190610a71565b600060405180830381600087803b15801561053d57600080fd5b505af1158015610551573d6000803e3d6000fd5b50505050600160009054906101000a900473ffffffffffffffffffffffffffffffffffffffff1673ffffffffffffffffffffffffffffffffffffffff166340c10f1930836040518363ffffffff1660e01b81526004016105b2929190610a71565b600060405180830381600087803b1580156105cc57600080fd5b505af11580156105e0573d6000803e3d6000fd5b5050505081600281905550806003819055505050565b60008060008054906101000a900473ffffffffffffffffffffffffffffffffffffffff16600160009054906101000a900473ffffffffffffffffffffffffffffffffffffffff16915091509091565b600080826002546106569190610b2f565b600354846106649190610bb6565b61066e9190610b85565b905080915050919050565b600081116106bc576040517f08c379a00000000000000000000000000000000000000000000000000000000081526004016106b390610aba565b60405180910390fd5b60006106c78261024d565b905060025481111561070e576040517f08c379a000000000000000000000000000000000000000000000000000000000815260040161070590610a9a565b60405180910390fd5b600160009054906101000a900473ffffffffffffffffffffffffffffffffffffffff1673ffffffffffffffffffffffffffffffffffffffff166323b872dd3330856040518463ffffffff1660e01b815260040161076d93929190610a3a565b602060405180830381600087803b15801561078757600080fd5b505af115801561079b573d6000803e3d6000fd5b505050506040513d601f19601f820116820180604052508101906107bf9190610904565b6107c857600080fd5b60008054906101000a900473ffffffffffffffffffffffffffffffffffffffff1673ffffffffffffffffffffffffffffffffffffffff1663a9059cbb33836040518363ffffffff1660e01b8152600401610823929190610a71565b602060405180830381600087803b15801561083d57600080fd5b505af1158015610851573d6000803e3d6000fd5b505050506040513d601f19601f820116820180604052508101906108759190610904565b61087e57600080fd5b80600260008282546108909190610c10565b9250508190555081600360008282546108a99190610b2f565b925050819055505050565b600160009054906101000a900473ffffffffffffffffffffffffffffffffffffffff1681565b6000815190506108e981610d88565b92915050565b6000813590506108fe81610d9f565b92915050565b60006020828403121561091657600080fd5b6000610924848285016108da565b91505092915050565b60006020828403121561093f57600080fd5b600061094d848285016108ef565b91505092915050565b6000806040838503121561096957600080fd5b6000610977858286016108ef565b9250506020610988858286016108ef565b9150509250929050565b61099b81610c44565b82525050565b60006109ae602283610b1e565b91506109b982610cea565b604082019050919050565b60006109d1602183610b1e565b91506109dc82610d39565b604082019050919050565b6109f081610c82565b82525050565b6000602082019050610a0b6000830184610992565b92915050565b6000604082019050610a266000830185610992565b610a336020830184610992565b9392505050565b6000606082019050610a4f6000830186610992565b610a5c6020830185610992565b610a6960408301846109e7565b949350505050565b6000604082019050610a866000830185610992565b610a9360208301846109e7565b9392505050565b60006020820190508181036000830152610ab3816109a1565b9050919050565b60006020820190508181036000830152610ad3816109c4565b9050919050565b6000602082019050610aef60008301846109e7565b92915050565b6000604082019050610b0a60008301856109e7565b610b1760208301846109e7565b9392505050565b600082825260208201905092915050565b6000610b3a82610c82565b9150610b4583610c82565b9250827fffffffffffffffffffffffffffffffffffffffffffffffffffffffffffffffff03821115610b7a57610b79610c8c565b5b828201905092915050565b6000610b9082610c82565b9150610b9b83610c82565b925082610bab57610baa610cbb565b5b828204905092915050565b6000610bc182610c82565b9150610bcc83610c82565b9250817fffffffffffffffffffffffffffffffffffffffffffffffffffffffffffffffff0483118215151615610c0557610c04610c8c565b5b828202905092915050565b6000610c1b82610c82565b9150610c2683610c82565b925082821015610c3957610c38610c8c565b5b828203905092915050565b6000610c4f82610c62565b9050919050565b60008115159050919050565b600073ffffffffffffffffffffffffffffffffffffffff82169050919050565b6000819050919050565b7f4e487b7100000000000000000000000000000000000000000000000000000000600052601160045260246000fd5b7f4e487b7100000000000000000000000000000000000000000000000000000000600052601260045260246000fd5b7f4e6f7420656e6f756768206c697175696469747920666f72207468652074726160008201527f6465000000000000000000000000000000000000000000000000000000000000602082015250565b7f496e76616c6964206e756d626572206f6620746f6b656e7320746f207472616460008201527f6500000000000000000000000000000000000000000000000000000000000000602082015250565b610d9181610c56565b8114610d9c57600080fd5b50565b610da881610c82565b8114610db357600080fd5b5056fea264697066735822122062cce222fd51285ec9027301341045f707eeadc75de18808c32c8c926647bd0a64736f6c63430008010033",
  "immutableReferences": {},
  "source": "// SPDX-License-Identifier: MIT\npragma solidity >=0.8.0 <0.9.0;\nimport \"./tigerToken.sol\";\nimport \"./interfaces/ISwap.sol\";\ncontract DynamicSwap is ISwap {\n\n    address public token0;\n    address public token1;\n    uint public reserve0;\n    uint public reserve1;\n\n    // Constructor that sets fixed reserves at the time of deployment\n    constructor(address addr0, address addr1) {\n        token0 = addr0;\n        token1 = addr1;\n        // Set fixed reserves when the contract is deployed\n        reserve0 = 0;\n        reserve1 = 0;\n\n    }\n\n    function init(uint token0Amount, uint token1Amount) external override {\n        \n        tigerToken(token0).mint(address(this), token0Amount);\n        tigerToken(token1).mint(address(this), token1Amount);\n\n        reserve0 = token0Amount;\n        reserve1 = token1Amount;\n    }\n\n\n    // View the reserves\n    function getReserves() external override view returns (uint, uint) {\n        return (reserve0, reserve1);\n    }\n\n    // View the tokens\n    function getTokens() external override view returns (address, address) {\n        return (token0, token1);\n    }\n\n    // Swap token0 for token1\n    function token0To1(uint token0Amount) external override {\n        require(token0Amount > 0, \"Invalid number of tokens to trade\");\n        \n        // Calculate how much token1 the user will get\n        uint token1Amount = getToken1AmountOut(token0Amount);\n        require(token1Amount <= reserve1, \"Not enough liquidity for the trade\");\n\n        // Transfer tokens from user to contract\n        require(tigerToken(token0).transferFrom(msg.sender, address(this), token0Amount));\n        // Transfer output token1 to the user\n        require(tigerToken(token1).transfer(msg.sender, token1Amount));\n\n        // Update reserves\n        reserve0 += token0Amount;\n        reserve1 -= token1Amount;\n    }\n\n    // Swap token1 for token0\n    function token1To0(uint token1Amount) external override {\n        require(token1Amount > 0, \"Invalid number of tokens to trade\");\n        \n        // Calculate how much token0 the user will get\n        uint token0Amount = getToken0AmountOut(token1Amount);\n        require(token0Amount <= reserve0, \"Not enough liquidity for the trade\");\n\n        // Transfer tokens from user to contract\n        require(tigerToken(token1).transferFrom(msg.sender, address(this), token1Amount));\n        // Transfer output token0 to the user\n        require(tigerToken(token0).transfer(msg.sender, token0Amount));\n\n        // Update reserves\n        reserve0 -= token0Amount;\n        reserve1 += token1Amount;\n    }\n\n    // Calculate token1 out using constant product formula\n    function getToken1AmountOut(uint token0Amount) override public view returns (uint) {\n        uint token1Amount = (token0Amount * reserve1) / (reserve0 + token0Amount);\n        return token1Amount;\n    }\n\n    // Calculate token0 out using constant product formula\n    function getToken0AmountOut(uint token1Amount) override public view returns (uint) {\n        uint token0Amount = (token1Amount * reserve0) / (reserve1 + token1Amount);\n        return token0Amount;\n    }\n}\n",
  "sourcePath": "/Users/carolinezhao/Downloads/tokens-in-town-v3/contracts/DynamicSwap.sol",
  "compiler": {
    "name": "solc",
    "version": "0.8.1+commit.df193b15.Emscripten.clang"
  },
  "schemaVersion": "3.4.16",
  "updatedAt": "2025-05-06T05:52:14.614Z",
  "networkType": "ethereum",
  "devdoc": {
    "kind": "dev",
    "methods": {},
    "version": 1
  },
  "userdoc": {
    "kind": "user",
    "methods": {},
    "version": 1
  }
}