{
  "contractName": "NFTsInTown",
  "abi": [
    {
      "inputs": [],
      "stateMutability": "nonpayable",
      "type": "constructor"
    },
    {
      "anonymous": false,
      "inputs": [
        {
          "indexed": true,
          "internalType": "address",
          "name": "account",
          "type": "address"
        },
        {
          "indexed": true,
          "internalType": "address",
          "name": "operator",
          "type": "address"
        },
        {
          "indexed": false,
          "internalType": "bool",
          "name": "approved",
          "type": "bool"
        }
      ],
      "name": "ApprovalForAll",
      "type": "event"
    },
    {
      "anonymous": false,
      "inputs": [
        {
          "indexed": true,
          "internalType": "bytes32",
          "name": "role",
          "type": "bytes32"
        },
        {
          "indexed": true,
          "internalType": "bytes32",
          "name": "previousAdminRole",
          "type": "bytes32"
        },
        {
          "indexed": true,
          "internalType": "bytes32",
          "name": "newAdminRole",
          "type": "bytes32"
        }
      ],
      "name": "RoleAdminChanged",
      "type": "event"
    },
    {
      "anonymous": false,
      "inputs": [
        {
          "indexed": true,
          "internalType": "bytes32",
          "name": "role",
          "type": "bytes32"
        },
        {
          "indexed": true,
          "internalType": "address",
          "name": "account",
          "type": "address"
        },
        {
          "indexed": true,
          "internalType": "address",
          "name": "sender",
          "type": "address"
        }
      ],
      "name": "RoleGranted",
      "type": "event"
    },
    {
      "anonymous": false,
      "inputs": [
        {
          "indexed": true,
          "internalType": "bytes32",
          "name": "role",
          "type": "bytes32"
        },
        {
          "indexed": true,
          "internalType": "address",
          "name": "account",
          "type": "address"
        },
        {
          "indexed": true,
          "internalType": "address",
          "name": "sender",
          "type": "address"
        }
      ],
      "name": "RoleRevoked",
      "type": "event"
    },
    {
      "anonymous": false,
      "inputs": [
        {
          "indexed": true,
          "internalType": "address",
          "name": "operator",
          "type": "address"
        },
        {
          "indexed": true,
          "internalType": "address",
          "name": "from",
          "type": "address"
        },
        {
          "indexed": true,
          "internalType": "address",
          "name": "to",
          "type": "address"
        },
        {
          "indexed": false,
          "internalType": "uint256[]",
          "name": "ids",
          "type": "uint256[]"
        },
        {
          "indexed": false,
          "internalType": "uint256[]",
          "name": "values",
          "type": "uint256[]"
        }
      ],
      "name": "TransferBatch",
      "type": "event"
    },
    {
      "anonymous": false,
      "inputs": [
        {
          "indexed": true,
          "internalType": "address",
          "name": "operator",
          "type": "address"
        },
        {
          "indexed": true,
          "internalType": "address",
          "name": "from",
          "type": "address"
        },
        {
          "indexed": true,
          "internalType": "address",
          "name": "to",
          "type": "address"
        },
        {
          "indexed": false,
          "internalType": "uint256",
          "name": "id",
          "type": "uint256"
        },
        {
          "indexed": false,
          "internalType": "uint256",
          "name": "value",
          "type": "uint256"
        }
      ],
      "name": "TransferSingle",
      "type": "event"
    },
    {
      "anonymous": false,
      "inputs": [
        {
          "indexed": false,
          "internalType": "string",
          "name": "value",
          "type": "string"
        },
        {
          "indexed": true,
          "internalType": "uint256",
          "name": "id",
          "type": "uint256"
        }
      ],
      "name": "URI",
      "type": "event"
    },
    {
      "inputs": [],
      "name": "BENT_SPOON_ICE_CREAM_FLAVOUR_OF_THE_WEEK",
      "outputs": [
        {
          "internalType": "uint256",
          "name": "",
          "type": "uint256"
        }
      ],
      "stateMutability": "view",
      "type": "function",
      "constant": true
    },
    {
      "inputs": [],
      "name": "DEFAULT_ADMIN_ROLE",
      "outputs": [
        {
          "internalType": "bytes32",
          "name": "",
          "type": "bytes32"
        }
      ],
      "stateMutability": "view",
      "type": "function",
      "constant": true
    },
    {
      "inputs": [],
      "name": "GARDEN_THEATRE_MOVIE_PREMIER",
      "outputs": [
        {
          "internalType": "uint256",
          "name": "",
          "type": "uint256"
        }
      ],
      "stateMutability": "view",
      "type": "function",
      "constant": true
    },
    {
      "inputs": [],
      "name": "MINTER_ROLE",
      "outputs": [
        {
          "internalType": "bytes32",
          "name": "",
          "type": "bytes32"
        }
      ],
      "stateMutability": "view",
      "type": "function",
      "constant": true
    },
    {
      "inputs": [],
      "name": "OLIVES_CHRISTMAS_SANDWICH_SPECIAL",
      "outputs": [
        {
          "internalType": "uint256",
          "name": "",
          "type": "uint256"
        }
      ],
      "stateMutability": "view",
      "type": "function",
      "constant": true
    },
    {
      "inputs": [],
      "name": "SMALL_WORLD_SEASONAL_DRINK",
      "outputs": [
        {
          "internalType": "uint256",
          "name": "",
          "type": "uint256"
        }
      ],
      "stateMutability": "view",
      "type": "function",
      "constant": true
    },
    {
      "inputs": [
        {
          "internalType": "address",
          "name": "account",
          "type": "address"
        },
        {
          "internalType": "uint256",
          "name": "id",
          "type": "uint256"
        }
      ],
      "name": "balanceOf",
      "outputs": [
        {
          "internalType": "uint256",
          "name": "",
          "type": "uint256"
        }
      ],
      "stateMutability": "view",
      "type": "function",
      "constant": true
    },
    {
      "inputs": [
        {
          "internalType": "address[]",
          "name": "accounts",
          "type": "address[]"
        },
        {
          "internalType": "uint256[]",
          "name": "ids",
          "type": "uint256[]"
        }
      ],
      "name": "balanceOfBatch",
      "outputs": [
        {
          "internalType": "uint256[]",
          "name": "",
          "type": "uint256[]"
        }
      ],
      "stateMutability": "view",
      "type": "function",
      "constant": true
    },
    {
      "inputs": [
        {
          "internalType": "bytes32",
          "name": "role",
          "type": "bytes32"
        }
      ],
      "name": "getRoleAdmin",
      "outputs": [
        {
          "internalType": "bytes32",
          "name": "",
          "type": "bytes32"
        }
      ],
      "stateMutability": "view",
      "type": "function",
      "constant": true
    },
    {
      "inputs": [
        {
          "internalType": "bytes32",
          "name": "role",
          "type": "bytes32"
        },
        {
          "internalType": "address",
          "name": "account",
          "type": "address"
        }
      ],
      "name": "grantRole",
      "outputs": [],
      "stateMutability": "nonpayable",
      "type": "function"
    },
    {
      "inputs": [
        {
          "internalType": "bytes32",
          "name": "role",
          "type": "bytes32"
        },
        {
          "internalType": "address",
          "name": "account",
          "type": "address"
        }
      ],
      "name": "hasRole",
      "outputs": [
        {
          "internalType": "bool",
          "name": "",
          "type": "bool"
        }
      ],
      "stateMutability": "view",
      "type": "function",
      "constant": true
    },
    {
      "inputs": [
        {
          "internalType": "address",
          "name": "account",
          "type": "address"
        },
        {
          "internalType": "address",
          "name": "operator",
          "type": "address"
        }
      ],
      "name": "isApprovedForAll",
      "outputs": [
        {
          "internalType": "bool",
          "name": "",
          "type": "bool"
        }
      ],
      "stateMutability": "view",
      "type": "function",
      "constant": true
    },
    {
      "inputs": [
        {
          "internalType": "bytes32",
          "name": "role",
          "type": "bytes32"
        },
        {
          "internalType": "address",
          "name": "account",
          "type": "address"
        }
      ],
      "name": "renounceRole",
      "outputs": [],
      "stateMutability": "nonpayable",
      "type": "function"
    },
    {
      "inputs": [
        {
          "internalType": "bytes32",
          "name": "role",
          "type": "bytes32"
        },
        {
          "internalType": "address",
          "name": "account",
          "type": "address"
        }
      ],
      "name": "revokeRole",
      "outputs": [],
      "stateMutability": "nonpayable",
      "type": "function"
    },
    {
      "inputs": [
        {
          "internalType": "address",
          "name": "from",
          "type": "address"
        },
        {
          "internalType": "address",
          "name": "to",
          "type": "address"
        },
        {
          "internalType": "uint256[]",
          "name": "ids",
          "type": "uint256[]"
        },
        {
          "internalType": "uint256[]",
          "name": "amounts",
          "type": "uint256[]"
        },
        {
          "internalType": "bytes",
          "name": "data",
          "type": "bytes"
        }
      ],
      "name": "safeBatchTransferFrom",
      "outputs": [],
      "stateMutability": "nonpayable",
      "type": "function"
    },
    {
      "inputs": [
        {
          "internalType": "address",
          "name": "from",
          "type": "address"
        },
        {
          "internalType": "address",
          "name": "to",
          "type": "address"
        },
        {
          "internalType": "uint256",
          "name": "id",
          "type": "uint256"
        },
        {
          "internalType": "uint256",
          "name": "amount",
          "type": "uint256"
        },
        {
          "internalType": "bytes",
          "name": "data",
          "type": "bytes"
        }
      ],
      "name": "safeTransferFrom",
      "outputs": [],
      "stateMutability": "nonpayable",
      "type": "function"
    },
    {
      "inputs": [
        {
          "internalType": "address",
          "name": "operator",
          "type": "address"
        },
        {
          "internalType": "bool",
          "name": "approved",
          "type": "bool"
        }
      ],
      "name": "setApprovalForAll",
      "outputs": [],
      "stateMutability": "nonpayable",
      "type": "function"
    },
    {
      "inputs": [
        {
          "internalType": "uint256",
          "name": "tokenId",
          "type": "uint256"
        },
        {
          "internalType": "string",
          "name": "newuri",
          "type": "string"
        }
      ],
      "name": "setTokenURI",
      "outputs": [],
      "stateMutability": "nonpayable",
      "type": "function"
    },
    {
      "inputs": [
        {
          "internalType": "uint256",
          "name": "tokenId",
          "type": "uint256"
        }
      ],
      "name": "uri",
      "outputs": [
        {
          "internalType": "string",
          "name": "",
          "type": "string"
        }
      ],
      "stateMutability": "view",
      "type": "function",
      "constant": true
    },
    {
      "inputs": [
        {
          "internalType": "address",
          "name": "account",
          "type": "address"
        },
        {
          "internalType": "uint256",
          "name": "id",
          "type": "uint256"
        },
        {
          "internalType": "uint256",
          "name": "amount",
          "type": "uint256"
        },
        {
          "internalType": "bytes",
          "name": "data",
          "type": "bytes"
        }
      ],
      "name": "mintNFT",
      "outputs": [],
      "stateMutability": "nonpayable",
      "type": "function"
    },
    {
      "inputs": [
        {
          "internalType": "bytes4",
          "name": "interfaceId",
          "type": "bytes4"
        }
      ],
      "name": "supportsInterface",
      "outputs": [
        {
          "internalType": "bool",
          "name": "",
          "type": "bool"
        }
      ],
      "stateMutability": "view",
      "type": "function",
      "constant": true
    }
  ],
  "bytecode": "0x60806040523480156200001157600080fd5b506040518060200160405280600081525062000033816200019060201b60201c565b50620000496000801b33620001ac60201b60201c565b6200007b7f9f2df0fed2c77648de5860a4cc508cd0818c85b8b8a1ab4ceeef8d981c8956a633620001ac60201b60201c565b60405180608001604052806050815260200162003cde60509139600460008081526020019081526020016000209080519060200190620000bd92919062000311565b5060405180608001604052806050815260200162003d2e60509139600460006001815260200190815260200160002090805190602001906200010192919062000311565b5060405180608001604052806050815260200162003c8e60509139600460006002815260200190815260200160002090805190602001906200014592919062000311565b5060405180608001604052806050815260200162003c3e60509139600460006003815260200190815260200160002090805190602001906200018992919062000311565b5062000426565b8060029080519060200190620001a892919062000311565b5050565b620001be82826200029e60201b60201c565b6200029a5760016003600084815260200190815260200160002060000160008373ffffffffffffffffffffffffffffffffffffffff1673ffffffffffffffffffffffffffffffffffffffff16815260200190815260200160002060006101000a81548160ff0219169083151502179055506200023f6200030960201b60201c565b73ffffffffffffffffffffffffffffffffffffffff168173ffffffffffffffffffffffffffffffffffffffff16837f2f8788117e7eff1d82e926ec794901d17c78024a50270940304540a733656f0d60405160405180910390a45b5050565b60006003600084815260200190815260200160002060000160008373ffffffffffffffffffffffffffffffffffffffff1673ffffffffffffffffffffffffffffffffffffffff16815260200190815260200160002060009054906101000a900460ff16905092915050565b600033905090565b8280546200031f90620003c1565b90600052602060002090601f0160209004810192826200034357600085556200038f565b82601f106200035e57805160ff19168380011785556200038f565b828001600101855582156200038f579182015b828111156200038e57825182559160200191906001019062000371565b5b5090506200039e9190620003a2565b5090565b5b80821115620003bd576000816000905550600101620003a3565b5090565b60006002820490506001821680620003da57607f821691505b60208210811415620003f157620003f0620003f7565b5b50919050565b7f4e487b7100000000000000000000000000000000000000000000000000000000600052602260045260246000fd5b61380880620004366000396000f3fe608060405234801561001057600080fd5b50600436106101365760003560e01c80634b641181116100b8578063a22cb4651161007c578063a22cb4651461035f578063cb4d48d51461037b578063d539139314610399578063d547741f146103b7578063e985e9c5146103d3578063f242432a1461040357610136565b80634b641181146102a75780634e1273f4146102c35780638f700c18146102f357806391d1485414610311578063a217fddf1461034157610136565b80631e6d38a7116100ff5780631e6d38a714610205578063248a9ca3146102235780632eb2c2d6146102535780632f2ff15d1461026f57806336568abe1461028b57610136565b8062fdd58e1461013b57806301d021a01461016b57806301ffc9a7146101895780630e89341c146101b9578063162094c4146101e9575b600080fd5b61015560048036038101906101509190612565565b61041f565b6040516101629190612e37565b60405180910390f35b6101736104e8565b6040516101809190612e37565b60405180910390f35b6101a3600480360381019061019e91906126ed565b6104ed565b6040516101b09190612c5f565b60405180910390f35b6101d360048036038101906101ce919061273f565b6104ff565b6040516101e09190612c95565b60405180910390f35b61020360048036038101906101fe9190612768565b6105a4565b005b61020d6105de565b60405161021a9190612e37565b60405180910390f35b61023d60048036038101906102389190612688565b6105e3565b60405161024a9190612c7a565b60405180910390f35b61026d600480360381019061026891906123db565b610603565b005b610289600480360381019061028491906126b1565b6106a4565b005b6102a560048036038101906102a091906126b1565b6106c5565b005b6102c160048036038101906102bc91906125a1565b610748565b005b6102dd60048036038101906102d8919061261c565b610785565b6040516102ea9190612c06565b60405180910390f35b6102fb610936565b6040516103089190612e37565b60405180910390f35b61032b600480360381019061032691906126b1565b61093b565b6040516103389190612c5f565b60405180910390f35b6103496109a6565b6040516103569190612c7a565b60405180910390f35b61037960048036038101906103749190612529565b6109ad565b005b6103836109c3565b6040516103909190612e37565b60405180910390f35b6103a16109c8565b6040516103ae9190612c7a565b60405180910390f35b6103d160048036038101906103cc91906126b1565b6109ec565b005b6103ed60048036038101906103e8919061239f565b610a0d565b6040516103fa9190612c5f565b60405180910390f35b61041d6004803603810190610418919061249a565b610aa1565b005b60008073ffffffffffffffffffffffffffffffffffffffff168373ffffffffffffffffffffffffffffffffffffffff161415610490576040517f08c379a000000000000000000000000000000000000000000000000000000000815260040161048790612cf7565b60405180910390fd5b60008083815260200190815260200160002060008473ffffffffffffffffffffffffffffffffffffffff1673ffffffffffffffffffffffffffffffffffffffff16815260200190815260200160002054905092915050565b600281565b60006104f882610b42565b9050919050565b606060046000838152602001908152602001600020805461051f90613170565b80601f016020809104026020016040519081016040528092919081815260200182805461054b90613170565b80156105985780601f1061056d57610100808354040283529160200191610598565b820191906000526020600020905b81548152906001019060200180831161057b57829003601f168201915b50505050509050919050565b6000801b6105b181610bbc565b816004600085815260200190815260200160002090805190602001906105d8929190612082565b50505050565b600081565b600060036000838152602001908152602001600020600101549050919050565b61060b610bd0565b73ffffffffffffffffffffffffffffffffffffffff168573ffffffffffffffffffffffffffffffffffffffff16148061065157506106508561064b610bd0565b610a0d565b5b610690576040517f08c379a000000000000000000000000000000000000000000000000000000000815260040161068790612d17565b60405180910390fd5b61069d8585858585610bd8565b5050505050565b6106ad826105e3565b6106b681610bbc565b6106c08383610f46565b505050565b6106cd610bd0565b73ffffffffffffffffffffffffffffffffffffffff168173ffffffffffffffffffffffffffffffffffffffff161461073a576040517f08c379a000000000000000000000000000000000000000000000000000000000815260040161073190612e17565b60405180910390fd5b6107448282611027565b5050565b7f9f2df0fed2c77648de5860a4cc508cd0818c85b8b8a1ab4ceeef8d981c8956a661077281610bbc565b61077e85858585611109565b5050505050565b606081518351146107cb576040517f08c379a00000000000000000000000000000000000000000000000000000000081526004016107c290612d97565b60405180910390fd5b6000835167ffffffffffffffff81111561080e577f4e487b7100000000000000000000000000000000000000000000000000000000600052604160045260246000fd5b60405190808252806020026020018201604052801561083c5781602001602082028036833780820191505090505b50905060005b845181101561092b576108d5858281518110610887577f4e487b7100000000000000000000000000000000000000000000000000000000600052603260045260246000fd5b60200260200101518583815181106108c8577f4e487b7100000000000000000000000000000000000000000000000000000000600052603260045260246000fd5b602002602001015161041f565b82828151811061090e577f4e487b7100000000000000000000000000000000000000000000000000000000600052603260045260246000fd5b60200260200101818152505080610924906131d3565b9050610842565b508091505092915050565b600181565b60006003600084815260200190815260200160002060000160008373ffffffffffffffffffffffffffffffffffffffff1673ffffffffffffffffffffffffffffffffffffffff16815260200190815260200160002060009054906101000a900460ff16905092915050565b6000801b81565b6109bf6109b8610bd0565b83836112ba565b5050565b600381565b7f9f2df0fed2c77648de5860a4cc508cd0818c85b8b8a1ab4ceeef8d981c8956a681565b6109f5826105e3565b6109fe81610bbc565b610a088383611027565b505050565b6000600160008473ffffffffffffffffffffffffffffffffffffffff1673ffffffffffffffffffffffffffffffffffffffff16815260200190815260200160002060008373ffffffffffffffffffffffffffffffffffffffff1673ffffffffffffffffffffffffffffffffffffffff16815260200190815260200160002060009054906101000a900460ff16905092915050565b610aa9610bd0565b73ffffffffffffffffffffffffffffffffffffffff168573ffffffffffffffffffffffffffffffffffffffff161480610aef5750610aee85610ae9610bd0565b610a0d565b5b610b2e576040517f08c379a0000000000000000000000000000000000000000000000000000000008152600401610b2590612d17565b60405180910390fd5b610b3b8585858585611427565b5050505050565b60007f7965db0b000000000000000000000000000000000000000000000000000000007bffffffffffffffffffffffffffffffffffffffffffffffffffffffff1916827bffffffffffffffffffffffffffffffffffffffffffffffffffffffff19161480610bb55750610bb4826116c3565b5b9050919050565b610bcd81610bc8610bd0565b6117a5565b50565b600033905090565b8151835114610c1c576040517f08c379a0000000000000000000000000000000000000000000000000000000008152600401610c1390612db7565b60405180910390fd5b600073ffffffffffffffffffffffffffffffffffffffff168473ffffffffffffffffffffffffffffffffffffffff161415610c8c576040517f08c379a0000000000000000000000000000000000000000000000000000000008152600401610c8390612d37565b60405180910390fd5b6000610c96610bd0565b9050610ca681878787878761182a565b60005b8451811015610ea3576000858281518110610ced577f4e487b7100000000000000000000000000000000000000000000000000000000600052603260045260246000fd5b602002602001015190506000858381518110610d32577f4e487b7100000000000000000000000000000000000000000000000000000000600052603260045260246000fd5b60200260200101519050600080600084815260200190815260200160002060008b73ffffffffffffffffffffffffffffffffffffffff1673ffffffffffffffffffffffffffffffffffffffff16815260200190815260200160002054905081811015610dd3576040517f08c379a0000000000000000000000000000000000000000000000000000000008152600401610dca90612d57565b60405180910390fd5b81810360008085815260200190815260200160002060008c73ffffffffffffffffffffffffffffffffffffffff1673ffffffffffffffffffffffffffffffffffffffff168152602001908152602001600020819055508160008085815260200190815260200160002060008b73ffffffffffffffffffffffffffffffffffffffff1673ffffffffffffffffffffffffffffffffffffffff1681526020019081526020016000206000828254610e889190612fd6565b9250508190555050505080610e9c906131d3565b9050610ca9565b508473ffffffffffffffffffffffffffffffffffffffff168673ffffffffffffffffffffffffffffffffffffffff168273ffffffffffffffffffffffffffffffffffffffff167f4a39dc06d4c0dbc64b70af90fd698a233a518aa5d07e595d983b8c0526c8f7fb8787604051610f1a929190612c28565b60405180910390a4610f30818787878787611832565b610f3e81878787878761183a565b505050505050565b610f50828261093b565b6110235760016003600084815260200190815260200160002060000160008373ffffffffffffffffffffffffffffffffffffffff1673ffffffffffffffffffffffffffffffffffffffff16815260200190815260200160002060006101000a81548160ff021916908315150217905550610fc8610bd0565b73ffffffffffffffffffffffffffffffffffffffff168173ffffffffffffffffffffffffffffffffffffffff16837f2f8788117e7eff1d82e926ec794901d17c78024a50270940304540a733656f0d60405160405180910390a45b5050565b611031828261093b565b156111055760006003600084815260200190815260200160002060000160008373ffffffffffffffffffffffffffffffffffffffff1673ffffffffffffffffffffffffffffffffffffffff16815260200190815260200160002060006101000a81548160ff0219169083151502179055506110aa610bd0565b73ffffffffffffffffffffffffffffffffffffffff168173ffffffffffffffffffffffffffffffffffffffff16837ff6391f5c32d9c69d2a47ea670b442974b53935d1edc7fd64eb21e047a839171b60405160405180910390a45b5050565b600073ffffffffffffffffffffffffffffffffffffffff168473ffffffffffffffffffffffffffffffffffffffff161415611179576040517f08c379a000000000000000000000000000000000000000000000000000000000815260040161117090612dd7565b60405180910390fd5b6000611183610bd0565b9050600061119085611a21565b9050600061119d85611a21565b90506111ae8360008985858961182a565b8460008088815260200190815260200160002060008973ffffffffffffffffffffffffffffffffffffffff1673ffffffffffffffffffffffffffffffffffffffff168152602001908152602001600020600082825461120d9190612fd6565b925050819055508673ffffffffffffffffffffffffffffffffffffffff16600073ffffffffffffffffffffffffffffffffffffffff168473ffffffffffffffffffffffffffffffffffffffff167fc3d58168c5ae7397731d063d5bbf3d657854427343f4c083240f7aacaa2d0f62898960405161128b929190612e52565b60405180910390a46112a283600089858589611832565b6112b183600089898989611ae7565b50505050505050565b8173ffffffffffffffffffffffffffffffffffffffff168373ffffffffffffffffffffffffffffffffffffffff161415611329576040517f08c379a000000000000000000000000000000000000000000000000000000000815260040161132090612d77565b60405180910390fd5b80600160008573ffffffffffffffffffffffffffffffffffffffff1673ffffffffffffffffffffffffffffffffffffffff16815260200190815260200160002060008473ffffffffffffffffffffffffffffffffffffffff1673ffffffffffffffffffffffffffffffffffffffff16815260200190815260200160002060006101000a81548160ff0219169083151502179055508173ffffffffffffffffffffffffffffffffffffffff168373ffffffffffffffffffffffffffffffffffffffff167f17307eab39ab6107e8899845ad3d59bd9653f200f220920489ca2b5937696c318360405161141a9190612c5f565b60405180910390a3505050565b600073ffffffffffffffffffffffffffffffffffffffff168473ffffffffffffffffffffffffffffffffffffffff161415611497576040517f08c379a000000000000000000000000000000000000000000000000000000000815260040161148e90612d37565b60405180910390fd5b60006114a1610bd0565b905060006114ae85611a21565b905060006114bb85611a21565b90506114cb83898985858961182a565b600080600088815260200190815260200160002060008a73ffffffffffffffffffffffffffffffffffffffff1673ffffffffffffffffffffffffffffffffffffffff16815260200190815260200160002054905085811015611562576040517f08c379a000000000000000000000000000000000000000000000000000000000815260040161155990612d57565b60405180910390fd5b85810360008089815260200190815260200160002060008b73ffffffffffffffffffffffffffffffffffffffff1673ffffffffffffffffffffffffffffffffffffffff168152602001908152602001600020819055508560008089815260200190815260200160002060008a73ffffffffffffffffffffffffffffffffffffffff1673ffffffffffffffffffffffffffffffffffffffff16815260200190815260200160002060008282546116179190612fd6565b925050819055508773ffffffffffffffffffffffffffffffffffffffff168973ffffffffffffffffffffffffffffffffffffffff168573ffffffffffffffffffffffffffffffffffffffff167fc3d58168c5ae7397731d063d5bbf3d657854427343f4c083240f7aacaa2d0f628a8a604051611694929190612e52565b60405180910390a46116aa848a8a86868a611832565b6116b8848a8a8a8a8a611ae7565b505050505050505050565b60007fd9b67a26000000000000000000000000000000000000000000000000000000007bffffffffffffffffffffffffffffffffffffffffffffffffffffffff1916827bffffffffffffffffffffffffffffffffffffffffffffffffffffffff1916148061178e57507f0e89341c000000000000000000000000000000000000000000000000000000007bffffffffffffffffffffffffffffffffffffffffffffffffffffffff1916827bffffffffffffffffffffffffffffffffffffffffffffffffffffffff1916145b8061179e575061179d82611cce565b5b9050919050565b6117af828261093b565b611826576117bc81611d38565b6117ca8360001c6020611d65565b6040516020016117db929190612b0a565b6040516020818303038152906040526040517f08c379a000000000000000000000000000000000000000000000000000000000815260040161181d9190612c95565b60405180910390fd5b5050565b505050505050565b505050505050565b6118598473ffffffffffffffffffffffffffffffffffffffff1661205f565b15611a19578373ffffffffffffffffffffffffffffffffffffffff1663bc197c8187878686866040518663ffffffff1660e01b815260040161189f959493929190612b44565b602060405180830381600087803b1580156118b957600080fd5b505af19250505080156118ea57506040513d601f19601f820116820180604052508101906118e79190612716565b60015b611990576118f66132a9565b806308c379a01415611953575061190b6136c9565b806119165750611955565b806040517f08c379a000000000000000000000000000000000000000000000000000000000815260040161194a9190612c95565b60405180910390fd5b505b6040517f08c379a000000000000000000000000000000000000000000000000000000000815260040161198790612df7565b60405180910390fd5b63bc197c8160e01b7bffffffffffffffffffffffffffffffffffffffffffffffffffffffff1916817bffffffffffffffffffffffffffffffffffffffffffffffffffffffff191614611a17576040517f08c379a0000000000000000000000000000000000000000000000000000000008152600401611a0e90612cd7565b60405180910390fd5b505b505050505050565b60606000600167ffffffffffffffff811115611a66577f4e487b7100000000000000000000000000000000000000000000000000000000600052604160045260246000fd5b604051908082528060200260200182016040528015611a945781602001602082028036833780820191505090505b5090508281600081518110611ad2577f4e487b7100000000000000000000000000000000000000000000000000000000600052603260045260246000fd5b60200260200101818152505080915050919050565b611b068473ffffffffffffffffffffffffffffffffffffffff1661205f565b15611cc6578373ffffffffffffffffffffffffffffffffffffffff1663f23a6e6187878686866040518663ffffffff1660e01b8152600401611b4c959493929190612bac565b602060405180830381600087803b158015611b6657600080fd5b505af1925050508015611b9757506040513d601f19601f82011682018060405250810190611b949190612716565b60015b611c3d57611ba36132a9565b806308c379a01415611c005750611bb86136c9565b80611bc35750611c02565b806040517f08c379a0000000000000000000000000000000000000000000000000000000008152600401611bf79190612c95565b60405180910390fd5b505b6040517f08c379a0000000000000000000000000000000000000000000000000000000008152600401611c3490612df7565b60405180910390fd5b63f23a6e6160e01b7bffffffffffffffffffffffffffffffffffffffffffffffffffffffff1916817bffffffffffffffffffffffffffffffffffffffffffffffffffffffff191614611cc4576040517f08c379a0000000000000000000000000000000000000000000000000000000008152600401611cbb90612cd7565b60405180910390fd5b505b505050505050565b60007f01ffc9a7000000000000000000000000000000000000000000000000000000007bffffffffffffffffffffffffffffffffffffffffffffffffffffffff1916827bffffffffffffffffffffffffffffffffffffffffffffffffffffffff1916149050919050565b6060611d5e8273ffffffffffffffffffffffffffffffffffffffff16601460ff16611d65565b9050919050565b606060006002836002611d78919061302c565b611d829190612fd6565b67ffffffffffffffff811115611dc1577f4e487b7100000000000000000000000000000000000000000000000000000000600052604160045260246000fd5b6040519080825280601f01601f191660200182016040528015611df35781602001600182028036833780820191505090505b5090507f300000000000000000000000000000000000000000000000000000000000000081600081518110611e51577f4e487b7100000000000000000000000000000000000000000000000000000000600052603260045260246000fd5b60200101907effffffffffffffffffffffffffffffffffffffffffffffffffffffffffffff1916908160001a9053507f780000000000000000000000000000000000000000000000000000000000000081600181518110611edb577f4e487b7100000000000000000000000000000000000000000000000000000000600052603260045260246000fd5b60200101907effffffffffffffffffffffffffffffffffffffffffffffffffffffffffffff1916908160001a90535060006001846002611f1b919061302c565b611f259190612fd6565b90505b6001811115612011577f3031323334353637383961626364656600000000000000000000000000000000600f861660108110611f8d577f4e487b7100000000000000000000000000000000000000000000000000000000600052603260045260246000fd5b1a60f81b828281518110611fca577f4e487b7100000000000000000000000000000000000000000000000000000000600052603260045260246000fd5b60200101907effffffffffffffffffffffffffffffffffffffffffffffffffffffffffffff1916908160001a905350600485901c94508061200a90613146565b9050611f28565b5060008414612055576040517f08c379a000000000000000000000000000000000000000000000000000000000815260040161204c90612cb7565b60405180910390fd5b8091505092915050565b6000808273ffffffffffffffffffffffffffffffffffffffff163b119050919050565b82805461208e90613170565b90600052602060002090601f0160209004810192826120b057600085556120f7565b82601f106120c957805160ff19168380011785556120f7565b828001600101855582156120f7579182015b828111156120f65782518255916020019190600101906120db565b5b5090506121049190612108565b5090565b5b80821115612121576000816000905550600101612109565b5090565b600061213861213384612ea0565b612e7b565b9050808382526020820190508285602086028201111561215757600080fd5b60005b85811015612187578161216d8882612279565b84526020840193506020830192505060018101905061215a565b5050509392505050565b60006121a461219f84612ecc565b612e7b565b905080838252602082019050828560208602820111156121c357600080fd5b60005b858110156121f357816121d9888261238a565b8452602084019350602083019250506001810190506121c6565b5050509392505050565b600061221061220b84612ef8565b612e7b565b90508281526020810184848401111561222857600080fd5b612233848285613104565b509392505050565b600061224e61224984612f29565b612e7b565b90508281526020810184848401111561226657600080fd5b612271848285613104565b509392505050565b6000813590506122888161375f565b92915050565b600082601f83011261229f57600080fd5b81356122af848260208601612125565b91505092915050565b600082601f8301126122c957600080fd5b81356122d9848260208601612191565b91505092915050565b6000813590506122f181613776565b92915050565b6000813590506123068161378d565b92915050565b60008135905061231b816137a4565b92915050565b600081519050612330816137a4565b92915050565b600082601f83011261234757600080fd5b81356123578482602086016121fd565b91505092915050565b600082601f83011261237157600080fd5b813561238184826020860161223b565b91505092915050565b600081359050612399816137bb565b92915050565b600080604083850312156123b257600080fd5b60006123c085828601612279565b92505060206123d185828601612279565b9150509250929050565b600080600080600060a086880312156123f357600080fd5b600061240188828901612279565b955050602061241288828901612279565b945050604086013567ffffffffffffffff81111561242f57600080fd5b61243b888289016122b8565b935050606086013567ffffffffffffffff81111561245857600080fd5b612464888289016122b8565b925050608086013567ffffffffffffffff81111561248157600080fd5b61248d88828901612336565b9150509295509295909350565b600080600080600060a086880312156124b257600080fd5b60006124c088828901612279565b95505060206124d188828901612279565b94505060406124e28882890161238a565b93505060606124f38882890161238a565b925050608086013567ffffffffffffffff81111561251057600080fd5b61251c88828901612336565b9150509295509295909350565b6000806040838503121561253c57600080fd5b600061254a85828601612279565b925050602061255b858286016122e2565b9150509250929050565b6000806040838503121561257857600080fd5b600061258685828601612279565b92505060206125978582860161238a565b9150509250929050565b600080600080608085870312156125b757600080fd5b60006125c587828801612279565b94505060206125d68782880161238a565b93505060406125e78782880161238a565b925050606085013567ffffffffffffffff81111561260457600080fd5b61261087828801612336565b91505092959194509250565b6000806040838503121561262f57600080fd5b600083013567ffffffffffffffff81111561264957600080fd5b6126558582860161228e565b925050602083013567ffffffffffffffff81111561267257600080fd5b61267e858286016122b8565b9150509250929050565b60006020828403121561269a57600080fd5b60006126a8848285016122f7565b91505092915050565b600080604083850312156126c457600080fd5b60006126d2858286016122f7565b92505060206126e385828601612279565b9150509250929050565b6000602082840312156126ff57600080fd5b600061270d8482850161230c565b91505092915050565b60006020828403121561272857600080fd5b600061273684828501612321565b91505092915050565b60006020828403121561275157600080fd5b600061275f8482850161238a565b91505092915050565b6000806040838503121561277b57600080fd5b60006127898582860161238a565b925050602083013567ffffffffffffffff8111156127a657600080fd5b6127b285828601612360565b9150509250929050565b60006127c88383612aec565b60208301905092915050565b6127dd81613086565b82525050565b60006127ee82612f6a565b6127f88185612f98565b935061280383612f5a565b8060005b8381101561283457815161281b88826127bc565b975061282683612f8b565b925050600181019050612807565b5085935050505092915050565b61284a81613098565b82525050565b612859816130a4565b82525050565b600061286a82612f75565b6128748185612fa9565b9350612884818560208601613113565b61288d816132cb565b840191505092915050565b60006128a382612f80565b6128ad8185612fba565b93506128bd818560208601613113565b6128c6816132cb565b840191505092915050565b60006128dc82612f80565b6128e68185612fcb565b93506128f6818560208601613113565b80840191505092915050565b600061290f602083612fba565b915061291a826132e9565b602082019050919050565b6000612932602883612fba565b915061293d82613312565b604082019050919050565b6000612955602a83612fba565b915061296082613361565b604082019050919050565b6000612978602e83612fba565b9150612983826133b0565b604082019050919050565b600061299b602583612fba565b91506129a6826133ff565b604082019050919050565b60006129be602a83612fba565b91506129c98261344e565b604082019050919050565b60006129e1601783612fcb565b91506129ec8261349d565b601782019050919050565b6000612a04602983612fba565b9150612a0f826134c6565b604082019050919050565b6000612a27602983612fba565b9150612a3282613515565b604082019050919050565b6000612a4a602883612fba565b9150612a5582613564565b604082019050919050565b6000612a6d602183612fba565b9150612a78826135b3565b604082019050919050565b6000612a90603483612fba565b9150612a9b82613602565b604082019050919050565b6000612ab3601183612fcb565b9150612abe82613651565b601182019050919050565b6000612ad6602f83612fba565b9150612ae18261367a565b604082019050919050565b612af5816130fa565b82525050565b612b04816130fa565b82525050565b6000612b15826129d4565b9150612b2182856128d1565b9150612b2c82612aa6565b9150612b3882846128d1565b91508190509392505050565b600060a082019050612b5960008301886127d4565b612b6660208301876127d4565b8181036040830152612b7881866127e3565b90508181036060830152612b8c81856127e3565b90508181036080830152612ba0818461285f565b90509695505050505050565b600060a082019050612bc160008301886127d4565b612bce60208301876127d4565b612bdb6040830186612afb565b612be86060830185612afb565b8181036080830152612bfa818461285f565b90509695505050505050565b60006020820190508181036000830152612c2081846127e3565b905092915050565b60006040820190508181036000830152612c4281856127e3565b90508181036020830152612c5681846127e3565b90509392505050565b6000602082019050612c746000830184612841565b92915050565b6000602082019050612c8f6000830184612850565b92915050565b60006020820190508181036000830152612caf8184612898565b905092915050565b60006020820190508181036000830152612cd081612902565b9050919050565b60006020820190508181036000830152612cf081612925565b9050919050565b60006020820190508181036000830152612d1081612948565b9050919050565b60006020820190508181036000830152612d308161296b565b9050919050565b60006020820190508181036000830152612d508161298e565b9050919050565b60006020820190508181036000830152612d70816129b1565b9050919050565b60006020820190508181036000830152612d90816129f7565b9050919050565b60006020820190508181036000830152612db081612a1a565b9050919050565b60006020820190508181036000830152612dd081612a3d565b9050919050565b60006020820190508181036000830152612df081612a60565b9050919050565b60006020820190508181036000830152612e1081612a83565b9050919050565b60006020820190508181036000830152612e3081612ac9565b9050919050565b6000602082019050612e4c6000830184612afb565b92915050565b6000604082019050612e676000830185612afb565b612e746020830184612afb565b9392505050565b6000612e85612e96565b9050612e9182826131a2565b919050565b6000604051905090565b600067ffffffffffffffff821115612ebb57612eba61327a565b5b602082029050602081019050919050565b600067ffffffffffffffff821115612ee757612ee661327a565b5b602082029050602081019050919050565b600067ffffffffffffffff821115612f1357612f1261327a565b5b612f1c826132cb565b9050602081019050919050565b600067ffffffffffffffff821115612f4457612f4361327a565b5b612f4d826132cb565b9050602081019050919050565b6000819050602082019050919050565b600081519050919050565b600081519050919050565b600081519050919050565b6000602082019050919050565b600082825260208201905092915050565b600082825260208201905092915050565b600082825260208201905092915050565b600081905092915050565b6000612fe1826130fa565b9150612fec836130fa565b9250827fffffffffffffffffffffffffffffffffffffffffffffffffffffffffffffffff038211156130215761302061321c565b5b828201905092915050565b6000613037826130fa565b9150613042836130fa565b9250817fffffffffffffffffffffffffffffffffffffffffffffffffffffffffffffffff048311821515161561307b5761307a61321c565b5b828202905092915050565b6000613091826130da565b9050919050565b60008115159050919050565b6000819050919050565b60007fffffffff0000000000000000000000000000000000000000000000000000000082169050919050565b600073ffffffffffffffffffffffffffffffffffffffff82169050919050565b6000819050919050565b82818337600083830152505050565b60005b83811015613131578082015181840152602081019050613116565b83811115613140576000848401525b50505050565b6000613151826130fa565b915060008214156131655761316461321c565b5b600182039050919050565b6000600282049050600182168061318857607f821691505b6020821081141561319c5761319b61324b565b5b50919050565b6131ab826132cb565b810181811067ffffffffffffffff821117156131ca576131c961327a565b5b80604052505050565b60006131de826130fa565b91507fffffffffffffffffffffffffffffffffffffffffffffffffffffffffffffffff8214156132115761321061321c565b5b600182019050919050565b7f4e487b7100000000000000000000000000000000000000000000000000000000600052601160045260246000fd5b7f4e487b7100000000000000000000000000000000000000000000000000000000600052602260045260246000fd5b7f4e487b7100000000000000000000000000000000000000000000000000000000600052604160045260246000fd5b600060033d11156132c85760046000803e6132c56000516132dc565b90505b90565b6000601f19601f8301169050919050565b60008160e01c9050919050565b7f537472696e67733a20686578206c656e67746820696e73756666696369656e74600082015250565b7f455243313135353a204552433131353552656365697665722072656a6563746560008201527f6420746f6b656e73000000000000000000000000000000000000000000000000602082015250565b7f455243313135353a2061646472657373207a65726f206973206e6f742061207660008201527f616c6964206f776e657200000000000000000000000000000000000000000000602082015250565b7f455243313135353a2063616c6c6572206973206e6f7420746f6b656e206f776e60008201527f6572206f7220617070726f766564000000000000000000000000000000000000602082015250565b7f455243313135353a207472616e7366657220746f20746865207a65726f20616460008201527f6472657373000000000000000000000000000000000000000000000000000000602082015250565b7f455243313135353a20696e73756666696369656e742062616c616e636520666f60008201527f72207472616e7366657200000000000000000000000000000000000000000000602082015250565b7f416363657373436f6e74726f6c3a206163636f756e7420000000000000000000600082015250565b7f455243313135353a2073657474696e6720617070726f76616c2073746174757360008201527f20666f722073656c660000000000000000000000000000000000000000000000602082015250565b7f455243313135353a206163636f756e747320616e6420696473206c656e67746860008201527f206d69736d617463680000000000000000000000000000000000000000000000602082015250565b7f455243313135353a2069647320616e6420616d6f756e7473206c656e6774682060008201527f6d69736d61746368000000000000000000000000000000000000000000000000602082015250565b7f455243313135353a206d696e7420746f20746865207a65726f2061646472657360008201527f7300000000000000000000000000000000000000000000000000000000000000602082015250565b7f455243313135353a207472616e7366657220746f206e6f6e2d4552433131353560008201527f526563656976657220696d706c656d656e746572000000000000000000000000602082015250565b7f206973206d697373696e6720726f6c6520000000000000000000000000000000600082015250565b7f416363657373436f6e74726f6c3a2063616e206f6e6c792072656e6f756e636560008201527f20726f6c657320666f722073656c660000000000000000000000000000000000602082015250565b600060443d10156136d95761375c565b6136e1612e96565b60043d036004823e80513d602482011167ffffffffffffffff8211171561370957505061375c565b808201805167ffffffffffffffff811115613727575050505061375c565b80602083010160043d03850181111561374457505050505061375c565b613753826020018501866131a2565b82955050505050505b90565b61376881613086565b811461377357600080fd5b50565b61377f81613098565b811461378a57600080fd5b50565b613796816130a4565b81146137a157600080fd5b50565b6137ad816130ae565b81146137b857600080fd5b50565b6137c4816130fa565b81146137cf57600080fd5b5056fea2646970667358221220c53af759bed3ac74e6ab20d3b286a4e713248ccf7ffd626d87e2d054542baccc64736f6c6343000801003368747470733a2f2f697066732e696f2f697066732f6261667962656965726269646e746d6f6c33376a656b79723462726771656e69736c74616b6f6469366d796d6e6867797766333761726e6c35646968747470733a2f2f697066732e696f2f697066732f6261667962656965696f326b6b756c776f356c766e676b6d6f7466786c6b706832626e6e64656e766f67646436616263726978756e377672766c7968747470733a2f2f697066732e696f2f697066732f626166796265696863366f6669716d353635366f76736b6664756f6c657a376e7864726d646f7235643764766e6436717369786134706b6c68707968747470733a2f2f697066732e696f2f697066732f62616679626569637169737a36626c36636b76677679666169766e6c756d7463326962356571637972356877647a7a786e6867736474716667336d",
  "immutableReferences": {},
  "source": "// SPDX-License-Identifier: MIT\npragma solidity ^0.8.0;\n\nimport \"@openzeppelin/contracts/token/ERC1155/ERC1155.sol\";\nimport \"@openzeppelin/contracts/access/AccessControl.sol\";\n\ncontract NFTsInTown is ERC1155, AccessControl {\n    bytes32 public constant MINTER_ROLE = keccak256(\"MINTER_ROLE\");\n\n    // Event IDs for your NFT events\n    uint256 public constant SMALL_WORLD_SEASONAL_DRINK = 0;\n    uint256 public constant GARDEN_THEATRE_MOVIE_PREMIER = 1;\n    uint256 public constant OLIVES_CHRISTMAS_SANDWICH_SPECIAL = 2;\n    uint256 public constant BENT_SPOON_ICE_CREAM_FLAVOUR_OF_THE_WEEK = 3;\n\n    // Mapping for token-specific URIs (metadata) for each event NFT\n    mapping(uint256 => string) private _tokenURIs;\n\n    constructor() ERC1155(\"\") {\n        _grantRole(DEFAULT_ADMIN_ROLE, msg.sender);\n        _grantRole(MINTER_ROLE, msg.sender);\n\n        // Initialize default URIs (these can be updated later via setTokenURI)\n        _tokenURIs[SMALL_WORLD_SEASONAL_DRINK] = \"https://ipfs.io/ipfs/bafybeihc6ofiqm5656ovskfduolez7nxdrmdor5d7dvnd6qsixa4pklhpy\";\n        _tokenURIs[GARDEN_THEATRE_MOVIE_PREMIER] = \"https://ipfs.io/ipfs/bafybeicqisz6bl6ckvgvyfaivnlumtc2ib5eqcyr5hwdzzxnhgsdtqfg3m\";\n        _tokenURIs[OLIVES_CHRISTMAS_SANDWICH_SPECIAL] = \"https://ipfs.io/ipfs/bafybeieio2kkulwo5lvngkmotfxlkph2bnndenvogdd6abcrixun7vrvly\";\n        _tokenURIs[BENT_SPOON_ICE_CREAM_FLAVOUR_OF_THE_WEEK] = \"https://ipfs.io/ipfs/bafybeierbidntmol37jekyr4brgqenisltakodi6mymnhgywf37arnl5di\";\n    }\n\n    /// @notice Update the metadata URI for a given NFT event.\n    function setTokenURI(uint256 tokenId, string memory newuri) public onlyRole(DEFAULT_ADMIN_ROLE) {\n        _tokenURIs[tokenId] = newuri;\n    }\n\n    /// @notice Override the uri function to return token-specific metadata.\n    function uri(uint256 tokenId) public view override returns (string memory) {\n        return _tokenURIs[tokenId];\n    }\n\n    /// @notice Mint a specified amount of an NFT (event token) to a target account.\n    /// @param account The recipient address.\n    /// @param id The NFT event ID (0 to 3).\n    /// @param amount The number of NFTs to mint.\n    function mintNFT(address account, uint256 id, uint256 amount, bytes memory data) public onlyRole(MINTER_ROLE) {\n        _mint(account, id, amount, data);\n    }\n\n    /// @notice Override supportsInterface to resolve multiple base class implementations.\n    function supportsInterface(bytes4 interfaceId) public view virtual override(ERC1155, AccessControl) returns (bool) {\n        return super.supportsInterface(interfaceId);\n    }\n}\n",
  "sourcePath": "/Users/carolinezhao/Downloads/tokens-in-town-v3/contracts/NFTsInTown.sol",
  "compiler": {
    "name": "solc",
    "version": "0.8.1+commit.df193b15.Emscripten.clang"
  },
  "schemaVersion": "3.4.16",
  "updatedAt": "2025-05-06T05:52:14.626Z",
  "networkType": "ethereum",
  "devdoc": {
    "kind": "dev",
    "methods": {
      "balanceOf(address,uint256)": {
        "details": "See {IERC1155-balanceOf}. Requirements: - `account` cannot be the zero address."
      },
      "balanceOfBatch(address[],uint256[])": {
        "details": "See {IERC1155-balanceOfBatch}. Requirements: - `accounts` and `ids` must have the same length."
      },
      "getRoleAdmin(bytes32)": {
        "details": "Returns the admin role that controls `role`. See {grantRole} and {revokeRole}. To change a role's admin, use {_setRoleAdmin}."
      },
      "grantRole(bytes32,address)": {
        "details": "Grants `role` to `account`. If `account` had not been already granted `role`, emits a {RoleGranted} event. Requirements: - the caller must have ``role``'s admin role. May emit a {RoleGranted} event."
      },
      "hasRole(bytes32,address)": {
        "details": "Returns `true` if `account` has been granted `role`."
      },
      "isApprovedForAll(address,address)": {
        "details": "See {IERC1155-isApprovedForAll}."
      },
      "mintNFT(address,uint256,uint256,bytes)": {
        "params": {
          "account": "The recipient address.",
          "amount": "The number of NFTs to mint.",
          "id": "The NFT event ID (0 to 3)."
        }
      },
      "renounceRole(bytes32,address)": {
        "details": "Revokes `role` from the calling account. Roles are often managed via {grantRole} and {revokeRole}: this function's purpose is to provide a mechanism for accounts to lose their privileges if they are compromised (such as when a trusted device is misplaced). If the calling account had been revoked `role`, emits a {RoleRevoked} event. Requirements: - the caller must be `account`. May emit a {RoleRevoked} event."
      },
      "revokeRole(bytes32,address)": {
        "details": "Revokes `role` from `account`. If `account` had been granted `role`, emits a {RoleRevoked} event. Requirements: - the caller must have ``role``'s admin role. May emit a {RoleRevoked} event."
      },
      "safeBatchTransferFrom(address,address,uint256[],uint256[],bytes)": {
        "details": "See {IERC1155-safeBatchTransferFrom}."
      },
      "safeTransferFrom(address,address,uint256,uint256,bytes)": {
        "details": "See {IERC1155-safeTransferFrom}."
      },
      "setApprovalForAll(address,bool)": {
        "details": "See {IERC1155-setApprovalForAll}."
      }
    },
    "version": 1
  },
  "userdoc": {
    "kind": "user",
    "methods": {
      "mintNFT(address,uint256,uint256,bytes)": {
        "notice": "Mint a specified amount of an NFT (event token) to a target account."
      },
      "setTokenURI(uint256,string)": {
        "notice": "Update the metadata URI for a given NFT event."
      },
      "supportsInterface(bytes4)": {
        "notice": "Override supportsInterface to resolve multiple base class implementations."
      },
      "uri(uint256)": {
        "notice": "Override the uri function to return token-specific metadata."
      }
    },
    "version": 1
  }
}