{
  "contractName": "tigerIceCream",
  "abi": [
    {
      "inputs": [
        {
          "internalType": "uint256",
          "name": "initialSupply",
          "type": "uint256"
        }
      ],
      "stateMutability": "nonpayable",
      "type": "constructor"
    },
    {
      "anonymous": false,
      "inputs": [
        {
          "indexed": true,
          "internalType": "address",
          "name": "owner",
          "type": "address"
        },
        {
          "indexed": true,
          "internalType": "address",
          "name": "spender",
          "type": "address"
        },
        {
          "indexed": false,
          "internalType": "uint256",
          "name": "value",
          "type": "uint256"
        }
      ],
      "name": "Approval",
      "type": "event"
    },
    {
      "anonymous": false,
      "inputs": [
        {
          "indexed": true,
          "internalType": "bytes32",
          "name": "role",
          "type": "bytes32"
        },
        {
          "indexed": true,
          "internalType": "bytes32",
          "name": "previousAdminRole",
          "type": "bytes32"
        },
        {
          "indexed": true,
          "internalType": "bytes32",
          "name": "newAdminRole",
          "type": "bytes32"
        }
      ],
      "name": "RoleAdminChanged",
      "type": "event"
    },
    {
      "anonymous": false,
      "inputs": [
        {
          "indexed": true,
          "internalType": "bytes32",
          "name": "role",
          "type": "bytes32"
        },
        {
          "indexed": true,
          "internalType": "address",
          "name": "account",
          "type": "address"
        },
        {
          "indexed": true,
          "internalType": "address",
          "name": "sender",
          "type": "address"
        }
      ],
      "name": "RoleGranted",
      "type": "event"
    },
    {
      "anonymous": false,
      "inputs": [
        {
          "indexed": true,
          "internalType": "bytes32",
          "name": "role",
          "type": "bytes32"
        },
        {
          "indexed": true,
          "internalType": "address",
          "name": "account",
          "type": "address"
        },
        {
          "indexed": true,
          "internalType": "address",
          "name": "sender",
          "type": "address"
        }
      ],
      "name": "RoleRevoked",
      "type": "event"
    },
    {
      "anonymous": false,
      "inputs": [
        {
          "indexed": true,
          "internalType": "address",
          "name": "from",
          "type": "address"
        },
        {
          "indexed": true,
          "internalType": "address",
          "name": "to",
          "type": "address"
        },
        {
          "indexed": false,
          "internalType": "uint256",
          "name": "value",
          "type": "uint256"
        }
      ],
      "name": "Transfer",
      "type": "event"
    },
    {
      "anonymous": false,
      "inputs": [
        {
          "indexed": false,
          "internalType": "address",
          "name": "from",
          "type": "address"
        },
        {
          "indexed": false,
          "internalType": "uint256",
          "name": "amount",
          "type": "uint256"
        }
      ],
      "name": "burnToken",
      "type": "event"
    },
    {
      "anonymous": false,
      "inputs": [
        {
          "indexed": false,
          "internalType": "address",
          "name": "to",
          "type": "address"
        },
        {
          "indexed": false,
          "internalType": "uint256",
          "name": "amount",
          "type": "uint256"
        }
      ],
      "name": "mintToken",
      "type": "event"
    },
    {
      "inputs": [],
      "name": "BURNER_ROLE",
      "outputs": [
        {
          "internalType": "bytes32",
          "name": "",
          "type": "bytes32"
        }
      ],
      "stateMutability": "view",
      "type": "function",
      "constant": true
    },
    {
      "inputs": [],
      "name": "DEFAULT_ADMIN_ROLE",
      "outputs": [
        {
          "internalType": "bytes32",
          "name": "",
          "type": "bytes32"
        }
      ],
      "stateMutability": "view",
      "type": "function",
      "constant": true
    },
    {
      "inputs": [],
      "name": "MINTER_ROLE",
      "outputs": [
        {
          "internalType": "bytes32",
          "name": "",
          "type": "bytes32"
        }
      ],
      "stateMutability": "view",
      "type": "function",
      "constant": true
    },
    {
      "inputs": [
        {
          "internalType": "address",
          "name": "owner",
          "type": "address"
        },
        {
          "internalType": "address",
          "name": "spender",
          "type": "address"
        }
      ],
      "name": "allowance",
      "outputs": [
        {
          "internalType": "uint256",
          "name": "",
          "type": "uint256"
        }
      ],
      "stateMutability": "view",
      "type": "function",
      "constant": true
    },
    {
      "inputs": [
        {
          "internalType": "address",
          "name": "spender",
          "type": "address"
        },
        {
          "internalType": "uint256",
          "name": "amount",
          "type": "uint256"
        }
      ],
      "name": "approve",
      "outputs": [
        {
          "internalType": "bool",
          "name": "",
          "type": "bool"
        }
      ],
      "stateMutability": "nonpayable",
      "type": "function"
    },
    {
      "inputs": [
        {
          "internalType": "address",
          "name": "account",
          "type": "address"
        }
      ],
      "name": "balanceOf",
      "outputs": [
        {
          "internalType": "uint256",
          "name": "",
          "type": "uint256"
        }
      ],
      "stateMutability": "view",
      "type": "function",
      "constant": true
    },
    {
      "inputs": [
        {
          "internalType": "address",
          "name": "from",
          "type": "address"
        },
        {
          "internalType": "uint256",
          "name": "amount",
          "type": "uint256"
        }
      ],
      "name": "burn",
      "outputs": [],
      "stateMutability": "nonpayable",
      "type": "function"
    },
    {
      "inputs": [],
      "name": "decimals",
      "outputs": [
        {
          "internalType": "uint8",
          "name": "",
          "type": "uint8"
        }
      ],
      "stateMutability": "view",
      "type": "function",
      "constant": true
    },
    {
      "inputs": [
        {
          "internalType": "address",
          "name": "spender",
          "type": "address"
        },
        {
          "internalType": "uint256",
          "name": "subtractedValue",
          "type": "uint256"
        }
      ],
      "name": "decreaseAllowance",
      "outputs": [
        {
          "internalType": "bool",
          "name": "",
          "type": "bool"
        }
      ],
      "stateMutability": "nonpayable",
      "type": "function"
    },
    {
      "inputs": [
        {
          "internalType": "bytes32",
          "name": "role",
          "type": "bytes32"
        }
      ],
      "name": "getRoleAdmin",
      "outputs": [
        {
          "internalType": "bytes32",
          "name": "",
          "type": "bytes32"
        }
      ],
      "stateMutability": "view",
      "type": "function",
      "constant": true
    },
    {
      "inputs": [
        {
          "internalType": "address",
          "name": "burner",
          "type": "address"
        }
      ],
      "name": "grantBurn",
      "outputs": [],
      "stateMutability": "nonpayable",
      "type": "function"
    },
    {
      "inputs": [
        {
          "internalType": "address",
          "name": "minter",
          "type": "address"
        }
      ],
      "name": "grantMint",
      "outputs": [],
      "stateMutability": "nonpayable",
      "type": "function"
    },
    {
      "inputs": [
        {
          "internalType": "bytes32",
          "name": "role",
          "type": "bytes32"
        },
        {
          "internalType": "address",
          "name": "account",
          "type": "address"
        }
      ],
      "name": "grantRole",
      "outputs": [],
      "stateMutability": "nonpayable",
      "type": "function"
    },
    {
      "inputs": [
        {
          "internalType": "bytes32",
          "name": "role",
          "type": "bytes32"
        },
        {
          "internalType": "address",
          "name": "account",
          "type": "address"
        }
      ],
      "name": "hasRole",
      "outputs": [
        {
          "internalType": "bool",
          "name": "",
          "type": "bool"
        }
      ],
      "stateMutability": "view",
      "type": "function",
      "constant": true
    },
    {
      "inputs": [
        {
          "internalType": "address",
          "name": "spender",
          "type": "address"
        },
        {
          "internalType": "uint256",
          "name": "addedValue",
          "type": "uint256"
        }
      ],
      "name": "increaseAllowance",
      "outputs": [
        {
          "internalType": "bool",
          "name": "",
          "type": "bool"
        }
      ],
      "stateMutability": "nonpayable",
      "type": "function"
    },
    {
      "inputs": [
        {
          "internalType": "address",
          "name": "to",
          "type": "address"
        },
        {
          "internalType": "uint256",
          "name": "amount",
          "type": "uint256"
        }
      ],
      "name": "mint",
      "outputs": [],
      "stateMutability": "nonpayable",
      "type": "function"
    },
    {
      "inputs": [],
      "name": "name",
      "outputs": [
        {
          "internalType": "string",
          "name": "",
          "type": "string"
        }
      ],
      "stateMutability": "view",
      "type": "function",
      "constant": true
    },
    {
      "inputs": [
        {
          "internalType": "address",
          "name": "to",
          "type": "address"
        }
      ],
      "name": "purchase",
      "outputs": [],
      "stateMutability": "nonpayable",
      "type": "function"
    },
    {
      "inputs": [
        {
          "internalType": "address",
          "name": "from",
          "type": "address"
        }
      ],
      "name": "redeem",
      "outputs": [],
      "stateMutability": "nonpayable",
      "type": "function"
    },
    {
      "inputs": [
        {
          "internalType": "bytes32",
          "name": "role",
          "type": "bytes32"
        },
        {
          "internalType": "address",
          "name": "account",
          "type": "address"
        }
      ],
      "name": "renounceRole",
      "outputs": [],
      "stateMutability": "nonpayable",
      "type": "function"
    },
    {
      "inputs": [
        {
          "internalType": "bytes32",
          "name": "role",
          "type": "bytes32"
        },
        {
          "internalType": "address",
          "name": "account",
          "type": "address"
        }
      ],
      "name": "revokeRole",
      "outputs": [],
      "stateMutability": "nonpayable",
      "type": "function"
    },
    {
      "inputs": [
        {
          "internalType": "address",
          "name": "to",
          "type": "address"
        },
        {
          "internalType": "uint256",
          "name": "amount",
          "type": "uint256"
        }
      ],
      "name": "scaleMint",
      "outputs": [],
      "stateMutability": "nonpayable",
      "type": "function"
    },
    {
      "inputs": [
        {
          "internalType": "bytes4",
          "name": "interfaceId",
          "type": "bytes4"
        }
      ],
      "name": "supportsInterface",
      "outputs": [
        {
          "internalType": "bool",
          "name": "",
          "type": "bool"
        }
      ],
      "stateMutability": "view",
      "type": "function",
      "constant": true
    },
    {
      "inputs": [],
      "name": "symbol",
      "outputs": [
        {
          "internalType": "string",
          "name": "",
          "type": "string"
        }
      ],
      "stateMutability": "view",
      "type": "function",
      "constant": true
    },
    {
      "inputs": [],
      "name": "totalSupply",
      "outputs": [
        {
          "internalType": "uint256",
          "name": "",
          "type": "uint256"
        }
      ],
      "stateMutability": "view",
      "type": "function",
      "constant": true
    },
    {
      "inputs": [
        {
          "internalType": "address",
          "name": "to",
          "type": "address"
        },
        {
          "internalType": "uint256",
          "name": "amount",
          "type": "uint256"
        }
      ],
      "name": "transfer",
      "outputs": [
        {
          "internalType": "bool",
          "name": "",
          "type": "bool"
        }
      ],
      "stateMutability": "nonpayable",
      "type": "function"
    },
    {
      "inputs": [
        {
          "internalType": "address",
          "name": "from",
          "type": "address"
        },
        {
          "internalType": "address",
          "name": "to",
          "type": "address"
        },
        {
          "internalType": "uint256",
          "name": "amount",
          "type": "uint256"
        }
      ],
      "name": "transferFrom",
      "outputs": [
        {
          "internalType": "bool",
          "name": "",
          "type": "bool"
        }
      ],
      "stateMutability": "nonpayable",
      "type": "function"
    }
  ],
  "bytecode": "0x60806040523480156200001157600080fd5b506040516200320c3803806200320c833981810160405281019062000037919062000549565b6040518060400160405280601481526020017f42656e742053706f6f6e2049636520437265616d0000000000000000000000008152506040518060400160405280600d81526020017f7469676572496365437265616d000000000000000000000000000000000000008152508282828160039080519060200190620000be92919062000482565b508060049080519060200190620000d792919062000482565b5050506200011933620000ef6200019c60201b60201c565b60ff16600a620001009190620006b5565b836200010d9190620007f2565b620001a560201b60201c565b6200012e6000801b336200031360201b60201c565b620001607f9f2df0fed2c77648de5860a4cc508cd0818c85b8b8a1ab4ceeef8d981c8956a6336200031360201b60201c565b620001927f3c11d16cbaffd01df69ce1c404f6340ee057498f5f00246190ea54220576a848336200031360201b60201c565b5050505062000941565b60006008905090565b600073ffffffffffffffffffffffffffffffffffffffff168273ffffffffffffffffffffffffffffffffffffffff16141562000218576040517f08c379a00000000000000000000000000000000000000000000000000000000081526004016200020f90620005ad565b60405180910390fd5b6200022c600083836200040560201b60201c565b8060026000828254620002409190620005fd565b92505081905550806000808473ffffffffffffffffffffffffffffffffffffffff1673ffffffffffffffffffffffffffffffffffffffff168152602001908152602001600020600082825401925050819055508173ffffffffffffffffffffffffffffffffffffffff16600073ffffffffffffffffffffffffffffffffffffffff167fddf252ad1be2c89b69c2b068fc378daa952ba7f163c4a11628f55a4df523b3ef83604051620002f39190620005cf565b60405180910390a36200030f600083836200040a60201b60201c565b5050565b6200032582826200040f60201b60201c565b620004015760016005600084815260200190815260200160002060000160008373ffffffffffffffffffffffffffffffffffffffff1673ffffffffffffffffffffffffffffffffffffffff16815260200190815260200160002060006101000a81548160ff021916908315150217905550620003a66200047a60201b60201c565b73ffffffffffffffffffffffffffffffffffffffff168173ffffffffffffffffffffffffffffffffffffffff16837f2f8788117e7eff1d82e926ec794901d17c78024a50270940304540a733656f0d60405160405180910390a45b5050565b505050565b505050565b60006005600084815260200190815260200160002060000160008373ffffffffffffffffffffffffffffffffffffffff1673ffffffffffffffffffffffffffffffffffffffff16815260200190815260200160002060009054906101000a900460ff16905092915050565b600033905090565b82805462000490906200085d565b90600052602060002090601f016020900481019282620004b4576000855562000500565b82601f10620004cf57805160ff191683800117855562000500565b8280016001018555821562000500579182015b82811115620004ff578251825591602001919060010190620004e2565b5b5090506200050f919062000513565b5090565b5b808211156200052e57600081600090555060010162000514565b5090565b600081519050620005438162000927565b92915050565b6000602082840312156200055c57600080fd5b60006200056c8482850162000532565b91505092915050565b600062000584601f83620005ec565b91506200059182620008fe565b602082019050919050565b620005a78162000853565b82525050565b60006020820190508181036000830152620005c88162000575565b9050919050565b6000602082019050620005e660008301846200059c565b92915050565b600082825260208201905092915050565b60006200060a8262000853565b9150620006178362000853565b9250827fffffffffffffffffffffffffffffffffffffffffffffffffffffffffffffffff038211156200064f576200064e62000893565b5b828201905092915050565b6000808291508390505b6001851115620006ac5780860481111562000684576200068362000893565b5b6001851615620006945780820291505b8081029050620006a485620008f1565b945062000664565b94509492505050565b6000620006c28262000853565b9150620006cf8362000853565b9250620006fe7fffffffffffffffffffffffffffffffffffffffffffffffffffffffffffffffff848462000706565b905092915050565b600082620007185760019050620007eb565b81620007285760009050620007eb565b81600181146200074157600281146200074c5762000782565b6001915050620007eb565b60ff84111562000761576200076062000893565b5b8360020a9150848211156200077b576200077a62000893565b5b50620007eb565b5060208310610133831016604e8410600b8410161715620007bc5782820a905083811115620007b657620007b562000893565b5b620007eb565b620007cb84848460016200065a565b92509050818404811115620007e557620007e462000893565b5b81810290505b9392505050565b6000620007ff8262000853565b91506200080c8362000853565b9250817fffffffffffffffffffffffffffffffffffffffffffffffffffffffffffffffff048311821515161562000848576200084762000893565b5b828202905092915050565b6000819050919050565b600060028204905060018216806200087657607f821691505b602082108114156200088d576200088c620008c2565b5b50919050565b7f4e487b7100000000000000000000000000000000000000000000000000000000600052601160045260246000fd5b7f4e487b7100000000000000000000000000000000000000000000000000000000600052602260045260246000fd5b60008160011c9050919050565b7f45524332303a206d696e7420746f20746865207a65726f206164647265737300600082015250565b620009328162000853565b81146200093e57600080fd5b50565b6128bb80620009516000396000f3fe608060405234801561001057600080fd5b50600436106101a95760003560e01c806340c10f19116100f9578063a06d8fc711610097578063a9059cbb11610071578063a9059cbb146104de578063d53913931461050e578063d547741f1461052c578063dd62ed3e14610548576101a9565b8063a06d8fc714610474578063a217fddf14610490578063a457c2d7146104ae576101a9565b806391d14854116100d357806391d14854146103ee57806395a2251f1461041e57806395d89b411461043a5780639dc29fac14610458576101a9565b806340c10f191461038657806370a08231146103a2578063853066dd146103d2576101a9565b806325b31a9711610166578063313ce56711610140578063313ce5671461030057806336568abe1461031e578063395093511461033a5780633e26e1ac1461036a576101a9565b806325b31a97146102aa578063282c51f3146102c65780632f2ff15d146102e4576101a9565b806301ffc9a7146101ae57806306fdde03146101de578063095ea7b3146101fc57806318160ddd1461022c57806323b872dd1461024a578063248a9ca31461027a575b600080fd5b6101c860048036038101906101c39190611c9c565b610578565b6040516101d59190611fc7565b60405180910390f35b6101e66105f2565b6040516101f39190611ffd565b60405180910390f35b61021660048036038101906102119190611bfb565b610684565b6040516102239190611fc7565b60405180910390f35b6102346106a7565b604051610241919061219f565b60405180910390f35b610264600480360381019061025f9190611bac565b6106b1565b6040516102719190611fc7565b60405180910390f35b610294600480360381019061028f9190611c37565b6106e0565b6040516102a19190611fe2565b60405180910390f35b6102c460048036038101906102bf9190611b47565b610700565b005b6102ce61073c565b6040516102db9190611fe2565b60405180910390f35b6102fe60048036038101906102f99190611c60565b610760565b005b610308610781565b60405161031591906121ba565b60405180910390f35b61033860048036038101906103339190611c60565b61078a565b005b610354600480360381019061034f9190611bfb565b61080d565b6040516103619190611fc7565b60405180910390f35b610384600480360381019061037f9190611bfb565b610844565b005b6103a0600480360381019061039b9190611bfb565b6108d4565b005b6103bc60048036038101906103b79190611b47565b610946565b6040516103c9919061219f565b60405180910390f35b6103ec60048036038101906103e79190611b47565b61098e565b005b61040860048036038101906104039190611c60565b6109bb565b6040516104159190611fc7565b60405180910390f35b61043860048036038101906104339190611b47565b610a26565b005b610442610a62565b60405161044f9190611ffd565b60405180910390f35b610472600480360381019061046d9190611bfb565b610af4565b005b61048e60048036038101906104899190611b47565b610b66565b005b610498610b93565b6040516104a59190611fe2565b60405180910390f35b6104c860048036038101906104c39190611bfb565b610b9a565b6040516104d59190611fc7565b60405180910390f35b6104f860048036038101906104f39190611bfb565b610c11565b6040516105059190611fc7565b60405180910390f35b610516610c34565b6040516105239190611fe2565b60405180910390f35b61054660048036038101906105419190611c60565b610c58565b005b610562600480360381019061055d9190611b70565b610c79565b60405161056f919061219f565b60405180910390f35b60007f7965db0b000000000000000000000000000000000000000000000000000000007bffffffffffffffffffffffffffffffffffffffffffffffffffffffff1916827bffffffffffffffffffffffffffffffffffffffffffffffffffffffff191614806105eb57506105ea82610d00565b5b9050919050565b606060038054610601906123c5565b80601f016020809104026020016040519081016040528092919081815260200182805461062d906123c5565b801561067a5780601f1061064f5761010080835404028352916020019161067a565b820191906000526020600020905b81548152906001019060200180831161065d57829003601f168201915b5050505050905090565b60008061068f610d6a565b905061069c818585610d72565b600191505092915050565b6000600254905090565b6000806106bc610d6a565b90506106c9858285610f3d565b6106d4858585610fc9565b60019150509392505050565b600060056000838152602001908152602001600020600101549050919050565b7f9f2df0fed2c77648de5860a4cc508cd0818c85b8b8a1ab4ceeef8d981c8956a661072a81611241565b610738826305f5e1006108d4565b5050565b7f3c11d16cbaffd01df69ce1c404f6340ee057498f5f00246190ea54220576a84881565b610769826106e0565b61077281611241565b61077c8383611255565b505050565b60006008905090565b610792610d6a565b73ffffffffffffffffffffffffffffffffffffffff168173ffffffffffffffffffffffffffffffffffffffff16146107ff576040517f08c379a00000000000000000000000000000000000000000000000000000000081526004016107f69061215f565b60405180910390fd5b6108098282611336565b5050565b600080610818610d6a565b905061083981858561082a8589610c79565b61083491906121fc565b610d72565b600191505092915050565b7f9f2df0fed2c77648de5860a4cc508cd0818c85b8b8a1ab4ceeef8d981c8956a661086e81611241565b610887836305f5e100846108829190612252565b611418565b7f79c65068f81072733b15ab3cba61b23110793f90ab099d228a414b186333a81e836305f5e100846108b99190612252565b6040516108c7929190611f9e565b60405180910390a1505050565b7f9f2df0fed2c77648de5860a4cc508cd0818c85b8b8a1ab4ceeef8d981c8956a66108fe81611241565b6109088383611418565b7f79c65068f81072733b15ab3cba61b23110793f90ab099d228a414b186333a81e8383604051610939929190611f9e565b60405180910390a1505050565b60008060008373ffffffffffffffffffffffffffffffffffffffff1673ffffffffffffffffffffffffffffffffffffffff168152602001908152602001600020549050919050565b6109b87f3c11d16cbaffd01df69ce1c404f6340ee057498f5f00246190ea54220576a84882611255565b50565b60006005600084815260200190815260200160002060000160008373ffffffffffffffffffffffffffffffffffffffff1673ffffffffffffffffffffffffffffffffffffffff16815260200190815260200160002060009054906101000a900460ff16905092915050565b7f3c11d16cbaffd01df69ce1c404f6340ee057498f5f00246190ea54220576a848610a5081611241565b610a5e82633b9aca00610af4565b5050565b606060048054610a71906123c5565b80601f0160208091040260200160405190810160405280929190818152602001828054610a9d906123c5565b8015610aea5780601f10610abf57610100808354040283529160200191610aea565b820191906000526020600020905b815481529060010190602001808311610acd57829003601f168201915b5050505050905090565b7f3c11d16cbaffd01df69ce1c404f6340ee057498f5f00246190ea54220576a848610b1e81611241565b610b28838361156f565b7fd1df306c742159c188c29d2c167874a39b84fd0f96f794ad7ea53295680ec1c58383604051610b59929190611f9e565b60405180910390a1505050565b610b907f9f2df0fed2c77648de5860a4cc508cd0818c85b8b8a1ab4ceeef8d981c8956a682611255565b50565b6000801b81565b600080610ba5610d6a565b90506000610bb38286610c79565b905083811015610bf8576040517f08c379a0000000000000000000000000000000000000000000000000000000008152600401610bef9061213f565b60405180910390fd5b610c058286868403610d72565b60019250505092915050565b600080610c1c610d6a565b9050610c29818585610fc9565b600191505092915050565b7f9f2df0fed2c77648de5860a4cc508cd0818c85b8b8a1ab4ceeef8d981c8956a681565b610c61826106e0565b610c6a81611241565b610c748383611336565b505050565b6000600160008473ffffffffffffffffffffffffffffffffffffffff1673ffffffffffffffffffffffffffffffffffffffff16815260200190815260200160002060008373ffffffffffffffffffffffffffffffffffffffff1673ffffffffffffffffffffffffffffffffffffffff16815260200190815260200160002054905092915050565b60007f01ffc9a7000000000000000000000000000000000000000000000000000000007bffffffffffffffffffffffffffffffffffffffffffffffffffffffff1916827bffffffffffffffffffffffffffffffffffffffffffffffffffffffff1916149050919050565b600033905090565b600073ffffffffffffffffffffffffffffffffffffffff168373ffffffffffffffffffffffffffffffffffffffff161415610de2576040517f08c379a0000000000000000000000000000000000000000000000000000000008152600401610dd99061211f565b60405180910390fd5b600073ffffffffffffffffffffffffffffffffffffffff168273ffffffffffffffffffffffffffffffffffffffff161415610e52576040517f08c379a0000000000000000000000000000000000000000000000000000000008152600401610e499061207f565b60405180910390fd5b80600160008573ffffffffffffffffffffffffffffffffffffffff1673ffffffffffffffffffffffffffffffffffffffff16815260200190815260200160002060008473ffffffffffffffffffffffffffffffffffffffff1673ffffffffffffffffffffffffffffffffffffffff168152602001908152602001600020819055508173ffffffffffffffffffffffffffffffffffffffff168373ffffffffffffffffffffffffffffffffffffffff167f8c5be1e5ebec7d5bd14f71427d1e84f3dd0314c0f7b2291e5b200ac8c7c3b92583604051610f30919061219f565b60405180910390a3505050565b6000610f498484610c79565b90507fffffffffffffffffffffffffffffffffffffffffffffffffffffffffffffffff8114610fc35781811015610fb5576040517f08c379a0000000000000000000000000000000000000000000000000000000008152600401610fac9061209f565b60405180910390fd5b610fc28484848403610d72565b5b50505050565b600073ffffffffffffffffffffffffffffffffffffffff168373ffffffffffffffffffffffffffffffffffffffff161415611039576040517f08c379a0000000000000000000000000000000000000000000000000000000008152600401611030906120ff565b60405180910390fd5b600073ffffffffffffffffffffffffffffffffffffffff168273ffffffffffffffffffffffffffffffffffffffff1614156110a9576040517f08c379a00000000000000000000000000000000000000000000000000000000081526004016110a09061203f565b60405180910390fd5b6110b483838361173d565b60008060008573ffffffffffffffffffffffffffffffffffffffff1673ffffffffffffffffffffffffffffffffffffffff1681526020019081526020016000205490508181101561113a576040517f08c379a0000000000000000000000000000000000000000000000000000000008152600401611131906120bf565b60405180910390fd5b8181036000808673ffffffffffffffffffffffffffffffffffffffff1673ffffffffffffffffffffffffffffffffffffffff16815260200190815260200160002081905550816000808573ffffffffffffffffffffffffffffffffffffffff1673ffffffffffffffffffffffffffffffffffffffff168152602001908152602001600020600082825401925050819055508273ffffffffffffffffffffffffffffffffffffffff168473ffffffffffffffffffffffffffffffffffffffff167fddf252ad1be2c89b69c2b068fc378daa952ba7f163c4a11628f55a4df523b3ef84604051611228919061219f565b60405180910390a361123b848484611742565b50505050565b6112528161124d610d6a565b611747565b50565b61125f82826109bb565b6113325760016005600084815260200190815260200160002060000160008373ffffffffffffffffffffffffffffffffffffffff1673ffffffffffffffffffffffffffffffffffffffff16815260200190815260200160002060006101000a81548160ff0219169083151502179055506112d7610d6a565b73ffffffffffffffffffffffffffffffffffffffff168173ffffffffffffffffffffffffffffffffffffffff16837f2f8788117e7eff1d82e926ec794901d17c78024a50270940304540a733656f0d60405160405180910390a45b5050565b61134082826109bb565b156114145760006005600084815260200190815260200160002060000160008373ffffffffffffffffffffffffffffffffffffffff1673ffffffffffffffffffffffffffffffffffffffff16815260200190815260200160002060006101000a81548160ff0219169083151502179055506113b9610d6a565b73ffffffffffffffffffffffffffffffffffffffff168173ffffffffffffffffffffffffffffffffffffffff16837ff6391f5c32d9c69d2a47ea670b442974b53935d1edc7fd64eb21e047a839171b60405160405180910390a45b5050565b600073ffffffffffffffffffffffffffffffffffffffff168273ffffffffffffffffffffffffffffffffffffffff161415611488576040517f08c379a000000000000000000000000000000000000000000000000000000000815260040161147f9061217f565b60405180910390fd5b6114946000838361173d565b80600260008282546114a691906121fc565b92505081905550806000808473ffffffffffffffffffffffffffffffffffffffff1673ffffffffffffffffffffffffffffffffffffffff168152602001908152602001600020600082825401925050819055508173ffffffffffffffffffffffffffffffffffffffff16600073ffffffffffffffffffffffffffffffffffffffff167fddf252ad1be2c89b69c2b068fc378daa952ba7f163c4a11628f55a4df523b3ef83604051611557919061219f565b60405180910390a361156b60008383611742565b5050565b600073ffffffffffffffffffffffffffffffffffffffff168273ffffffffffffffffffffffffffffffffffffffff1614156115df576040517f08c379a00000000000000000000000000000000000000000000000000000000081526004016115d6906120df565b60405180910390fd5b6115eb8260008361173d565b60008060008473ffffffffffffffffffffffffffffffffffffffff1673ffffffffffffffffffffffffffffffffffffffff16815260200190815260200160002054905081811015611671576040517f08c379a00000000000000000000000000000000000000000000000000000000081526004016116689061205f565b60405180910390fd5b8181036000808573ffffffffffffffffffffffffffffffffffffffff1673ffffffffffffffffffffffffffffffffffffffff1681526020019081526020016000208190555081600260008282540392505081905550600073ffffffffffffffffffffffffffffffffffffffff168373ffffffffffffffffffffffffffffffffffffffff167fddf252ad1be2c89b69c2b068fc378daa952ba7f163c4a11628f55a4df523b3ef84604051611724919061219f565b60405180910390a361173883600084611742565b505050565b505050565b505050565b61175182826109bb565b6117c85761175e816117cc565b61176c8360001c60206117f9565b60405160200161177d929190611f64565b6040516020818303038152906040526040517f08c379a00000000000000000000000000000000000000000000000000000000081526004016117bf9190611ffd565b60405180910390fd5b5050565b60606117f28273ffffffffffffffffffffffffffffffffffffffff16601460ff166117f9565b9050919050565b60606000600283600261180c9190612283565b61181691906121fc565b67ffffffffffffffff811115611855577f4e487b7100000000000000000000000000000000000000000000000000000000600052604160045260246000fd5b6040519080825280601f01601f1916602001820160405280156118875781602001600182028036833780820191505090505b5090507f3000000000000000000000000000000000000000000000000000000000000000816000815181106118e5577f4e487b7100000000000000000000000000000000000000000000000000000000600052603260045260246000fd5b60200101907effffffffffffffffffffffffffffffffffffffffffffffffffffffffffffff1916908160001a9053507f78000000000000000000000000000000000000000000000000000000000000008160018151811061196f577f4e487b7100000000000000000000000000000000000000000000000000000000600052603260045260246000fd5b60200101907effffffffffffffffffffffffffffffffffffffffffffffffffffffffffffff1916908160001a905350600060018460026119af9190612283565b6119b991906121fc565b90505b6001811115611aa5577f3031323334353637383961626364656600000000000000000000000000000000600f861660108110611a21577f4e487b7100000000000000000000000000000000000000000000000000000000600052603260045260246000fd5b1a60f81b828281518110611a5e577f4e487b7100000000000000000000000000000000000000000000000000000000600052603260045260246000fd5b60200101907effffffffffffffffffffffffffffffffffffffffffffffffffffffffffffff1916908160001a905350600485901c945080611a9e9061239b565b90506119bc565b5060008414611ae9576040517f08c379a0000000000000000000000000000000000000000000000000000000008152600401611ae09061201f565b60405180910390fd5b8091505092915050565b600081359050611b0281612829565b92915050565b600081359050611b1781612840565b92915050565b600081359050611b2c81612857565b92915050565b600081359050611b418161286e565b92915050565b600060208284031215611b5957600080fd5b6000611b6784828501611af3565b91505092915050565b60008060408385031215611b8357600080fd5b6000611b9185828601611af3565b9250506020611ba285828601611af3565b9150509250929050565b600080600060608486031215611bc157600080fd5b6000611bcf86828701611af3565b9350506020611be086828701611af3565b9250506040611bf186828701611b32565b9150509250925092565b60008060408385031215611c0e57600080fd5b6000611c1c85828601611af3565b9250506020611c2d85828601611b32565b9150509250929050565b600060208284031215611c4957600080fd5b6000611c5784828501611b08565b91505092915050565b60008060408385031215611c7357600080fd5b6000611c8185828601611b08565b9250506020611c9285828601611af3565b9150509250929050565b600060208284031215611cae57600080fd5b6000611cbc84828501611b1d565b91505092915050565b611cce816122dd565b82525050565b611cdd816122ef565b82525050565b611cec816122fb565b82525050565b6000611cfd826121d5565b611d0781856121e0565b9350611d17818560208601612368565b611d2081612484565b840191505092915050565b6000611d36826121d5565b611d4081856121f1565b9350611d50818560208601612368565b80840191505092915050565b6000611d696020836121e0565b9150611d7482612495565b602082019050919050565b6000611d8c6023836121e0565b9150611d97826124be565b604082019050919050565b6000611daf6022836121e0565b9150611dba8261250d565b604082019050919050565b6000611dd26022836121e0565b9150611ddd8261255c565b604082019050919050565b6000611df5601d836121e0565b9150611e00826125ab565b602082019050919050565b6000611e186026836121e0565b9150611e23826125d4565b604082019050919050565b6000611e3b6021836121e0565b9150611e4682612623565b604082019050919050565b6000611e5e6025836121e0565b9150611e6982612672565b604082019050919050565b6000611e816024836121e0565b9150611e8c826126c1565b604082019050919050565b6000611ea46017836121f1565b9150611eaf82612710565b601782019050919050565b6000611ec76025836121e0565b9150611ed282612739565b604082019050919050565b6000611eea6011836121f1565b9150611ef582612788565b601182019050919050565b6000611f0d602f836121e0565b9150611f18826127b1565b604082019050919050565b6000611f30601f836121e0565b9150611f3b82612800565b602082019050919050565b611f4f81612351565b82525050565b611f5e8161235b565b82525050565b6000611f6f82611e97565b9150611f7b8285611d2b565b9150611f8682611edd565b9150611f928284611d2b565b91508190509392505050565b6000604082019050611fb36000830185611cc5565b611fc06020830184611f46565b9392505050565b6000602082019050611fdc6000830184611cd4565b92915050565b6000602082019050611ff76000830184611ce3565b92915050565b600060208201905081810360008301526120178184611cf2565b905092915050565b6000602082019050818103600083015261203881611d5c565b9050919050565b6000602082019050818103600083015261205881611d7f565b9050919050565b6000602082019050818103600083015261207881611da2565b9050919050565b6000602082019050818103600083015261209881611dc5565b9050919050565b600060208201905081810360008301526120b881611de8565b9050919050565b600060208201905081810360008301526120d881611e0b565b9050919050565b600060208201905081810360008301526120f881611e2e565b9050919050565b6000602082019050818103600083015261211881611e51565b9050919050565b6000602082019050818103600083015261213881611e74565b9050919050565b6000602082019050818103600083015261215881611eba565b9050919050565b6000602082019050818103600083015261217881611f00565b9050919050565b6000602082019050818103600083015261219881611f23565b9050919050565b60006020820190506121b46000830184611f46565b92915050565b60006020820190506121cf6000830184611f55565b92915050565b600081519050919050565b600082825260208201905092915050565b600081905092915050565b600061220782612351565b915061221283612351565b9250827fffffffffffffffffffffffffffffffffffffffffffffffffffffffffffffffff03821115612247576122466123f7565b5b828201905092915050565b600061225d82612351565b915061226883612351565b92508261227857612277612426565b5b828204905092915050565b600061228e82612351565b915061229983612351565b9250817fffffffffffffffffffffffffffffffffffffffffffffffffffffffffffffffff04831182151516156122d2576122d16123f7565b5b828202905092915050565b60006122e882612331565b9050919050565b60008115159050919050565b6000819050919050565b60007fffffffff0000000000000000000000000000000000000000000000000000000082169050919050565b600073ffffffffffffffffffffffffffffffffffffffff82169050919050565b6000819050919050565b600060ff82169050919050565b60005b8381101561238657808201518184015260208101905061236b565b83811115612395576000848401525b50505050565b60006123a682612351565b915060008214156123ba576123b96123f7565b5b600182039050919050565b600060028204905060018216806123dd57607f821691505b602082108114156123f1576123f0612455565b5b50919050565b7f4e487b7100000000000000000000000000000000000000000000000000000000600052601160045260246000fd5b7f4e487b7100000000000000000000000000000000000000000000000000000000600052601260045260246000fd5b7f4e487b7100000000000000000000000000000000000000000000000000000000600052602260045260246000fd5b6000601f19601f8301169050919050565b7f537472696e67733a20686578206c656e67746820696e73756666696369656e74600082015250565b7f45524332303a207472616e7366657220746f20746865207a65726f206164647260008201527f6573730000000000000000000000000000000000000000000000000000000000602082015250565b7f45524332303a206275726e20616d6f756e7420657863656564732062616c616e60008201527f6365000000000000000000000000000000000000000000000000000000000000602082015250565b7f45524332303a20617070726f766520746f20746865207a65726f20616464726560008201527f7373000000000000000000000000000000000000000000000000000000000000602082015250565b7f45524332303a20696e73756666696369656e7420616c6c6f77616e6365000000600082015250565b7f45524332303a207472616e7366657220616d6f756e742065786365656473206260008201527f616c616e63650000000000000000000000000000000000000000000000000000602082015250565b7f45524332303a206275726e2066726f6d20746865207a65726f2061646472657360008201527f7300000000000000000000000000000000000000000000000000000000000000602082015250565b7f45524332303a207472616e736665722066726f6d20746865207a65726f20616460008201527f6472657373000000000000000000000000000000000000000000000000000000602082015250565b7f45524332303a20617070726f76652066726f6d20746865207a65726f2061646460008201527f7265737300000000000000000000000000000000000000000000000000000000602082015250565b7f416363657373436f6e74726f6c3a206163636f756e7420000000000000000000600082015250565b7f45524332303a2064656372656173656420616c6c6f77616e63652062656c6f7760008201527f207a65726f000000000000000000000000000000000000000000000000000000602082015250565b7f206973206d697373696e6720726f6c6520000000000000000000000000000000600082015250565b7f416363657373436f6e74726f6c3a2063616e206f6e6c792072656e6f756e636560008201527f20726f6c657320666f722073656c660000000000000000000000000000000000602082015250565b7f45524332303a206d696e7420746f20746865207a65726f206164647265737300600082015250565b612832816122dd565b811461283d57600080fd5b50565b612849816122fb565b811461285457600080fd5b50565b61286081612305565b811461286b57600080fd5b50565b61287781612351565b811461288257600080fd5b5056fea2646970667358221220d8610ae0b77bf0c17789db5c46f93e82b10d14873c8e552b947fa3a66e7e5eb864736f6c63430008010033",
  "immutableReferences": {},
  "source": "pragma solidity >=0.8.0 <0.9.0;\n//SPDX-License-Identifier: MIT\n\nimport \"./tigerToken.sol\";\n\ncontract tigerIceCream is tigerToken {\n    \n    constructor(uint256 initialSupply) tigerToken('Bent Spoon Ice Cream', 'tigerIceCream', initialSupply) {\n    }\n}",
  "sourcePath": "/Users/carolinezhao/Downloads/tokens-in-town-v3/contracts/tigerIceCream.sol",
  "compiler": {
    "name": "solc",
    "version": "0.8.1+commit.df193b15.Emscripten.clang"
  },
  "schemaVersion": "3.4.16",
  "updatedAt": "2025-05-06T05:52:14.621Z",
  "networkType": "ethereum",
  "devdoc": {
    "kind": "dev",
    "methods": {
      "allowance(address,address)": {
        "details": "See {IERC20-allowance}."
      },
      "approve(address,uint256)": {
        "details": "See {IERC20-approve}. NOTE: If `amount` is the maximum `uint256`, the allowance is not updated on `transferFrom`. This is semantically equivalent to an infinite approval. Requirements: - `spender` cannot be the zero address."
      },
      "balanceOf(address)": {
        "details": "See {IERC20-balanceOf}."
      },
      "decimals()": {
        "details": "Returns the number of decimals used to get its user representation. For example, if `decimals` equals `2`, a balance of `505` tokens should be displayed to a user as `5.05` (`505 / 10 ** 2`). Tokens usually opt for a value of 18, imitating the relationship between Ether and Wei. This is the default value returned by this function, unless it's overridden. NOTE: This information is only used for _display_ purposes: it in no way affects any of the arithmetic of the contract, including {IERC20-balanceOf} and {IERC20-transfer}."
      },
      "decreaseAllowance(address,uint256)": {
        "details": "Atomically decreases the allowance granted to `spender` by the caller. This is an alternative to {approve} that can be used as a mitigation for problems described in {IERC20-approve}. Emits an {Approval} event indicating the updated allowance. Requirements: - `spender` cannot be the zero address. - `spender` must have allowance for the caller of at least `subtractedValue`."
      },
      "getRoleAdmin(bytes32)": {
        "details": "Returns the admin role that controls `role`. See {grantRole} and {revokeRole}. To change a role's admin, use {_setRoleAdmin}."
      },
      "grantRole(bytes32,address)": {
        "details": "Grants `role` to `account`. If `account` had not been already granted `role`, emits a {RoleGranted} event. Requirements: - the caller must have ``role``'s admin role. May emit a {RoleGranted} event."
      },
      "hasRole(bytes32,address)": {
        "details": "Returns `true` if `account` has been granted `role`."
      },
      "increaseAllowance(address,uint256)": {
        "details": "Atomically increases the allowance granted to `spender` by the caller. This is an alternative to {approve} that can be used as a mitigation for problems described in {IERC20-approve}. Emits an {Approval} event indicating the updated allowance. Requirements: - `spender` cannot be the zero address."
      },
      "name()": {
        "details": "Returns the name of the token."
      },
      "renounceRole(bytes32,address)": {
        "details": "Revokes `role` from the calling account. Roles are often managed via {grantRole} and {revokeRole}: this function's purpose is to provide a mechanism for accounts to lose their privileges if they are compromised (such as when a trusted device is misplaced). If the calling account had been revoked `role`, emits a {RoleRevoked} event. Requirements: - the caller must be `account`. May emit a {RoleRevoked} event."
      },
      "revokeRole(bytes32,address)": {
        "details": "Revokes `role` from `account`. If `account` had been granted `role`, emits a {RoleRevoked} event. Requirements: - the caller must have ``role``'s admin role. May emit a {RoleRevoked} event."
      },
      "supportsInterface(bytes4)": {
        "details": "See {IERC165-supportsInterface}."
      },
      "symbol()": {
        "details": "Returns the symbol of the token, usually a shorter version of the name."
      },
      "totalSupply()": {
        "details": "See {IERC20-totalSupply}."
      },
      "transfer(address,uint256)": {
        "details": "See {IERC20-transfer}. Requirements: - `to` cannot be the zero address. - the caller must have a balance of at least `amount`."
      },
      "transferFrom(address,address,uint256)": {
        "details": "See {IERC20-transferFrom}. Emits an {Approval} event indicating the updated allowance. This is not required by the EIP. See the note at the beginning of {ERC20}. NOTE: Does not update the allowance if the current allowance is the maximum `uint256`. Requirements: - `from` and `to` cannot be the zero address. - `from` must have a balance of at least `amount`. - the caller must have allowance for ``from``'s tokens of at least `amount`."
      }
    },
    "version": 1
  },
  "userdoc": {
    "kind": "user",
    "methods": {},
    "version": 1
  }
}